:020000040800F2
:1000000000500020191700082116000829160008C2
:1000100031160008391600084116000800000000DB
:100020000000000000000000000000004916000869
:100030005516000800000000611600086D16000843
:1000400061170008611700086117000861170008B0
:1000500061170008611700086117000861170008A0
:100060006117000861170008611700087916000879
:100070006117000861170008611700086117000880
:100080006117000861170008611700086117000870
:100090006117000861170008611700086117000860
:1000A0006117000861170008611700086117000850
:1000B000611700088D160008611700086117000815
:1000C0006117000861170008611700086117000830
:1000D0006117000861170008611700086117000820
:1000E0006117000861170008611700080000000090
:1000F0000000000000000000000000000000000000
:0C01000000000000000000005FF808F1A3
:10010C0010B5054C237833B9044B13B10448AFF345
:10011C0000800123237010BD5C0000200000000053
:10012C00E853000808B5034B1BB103490348AFF370
:10013C00008008BD0000000060000020E8530008AB
:10014C00034613F8012B002AFBD1181A013870470B
:10015C004FF0FF0C1CEAD0521EBF1CEAD15392EA9E
:10016C000C0F93EA0C0F6FD01A4480EA010C40027A
:10017C0018BF5FEA41211ED04FF0006343EA5010D4
:10018C0043EA5111A0FB01310CF00040B1F5000F16
:10019C003EBF490041EAD3715B0040EA010062F1C5
:1001AC007F02FD2A1DD8B3F1004F40EBC25008BFAF
:1001BC0020F00100704790F0000F0CF0004C08BFCD
:1001CC0049024CEA502040EA51207F3AC2BFD2F19A
:1001DC00FF0340EAC250704740F400004FF00003A8
:1001EC00013A5DDC12F1190FDCBF00F000407047E2
:1001FC00C2F10002410021FA02F1C2F1200200FA20
:10020C0002FC5FEA310040F1000053EA4C0308BFE6
:10021C0020EADC70704792F0000F00F0004C02BF37
:10022C00400010F4000F013AF9D040EA0C0093F0B2
:10023C00000F01F0004C02BF490011F4000F013B0C
:10024C00F9D041EA0C018FE70CEAD15392EA0C0F7A
:10025C0018BF93EA0C0F0AD030F0004C18BF31F0E5
:10026C00004CD8D180EA010000F00040704790F0BB
:10027C00000F17BF90F0004F084691F0000F91F05F
:10028C00004F14D092EA0C0F01D142020FD193EA25
:10029C000C0F03D14B0218BF084608D180EA0100AD
:1002AC0000F0004040F0FE4040F40000704740F089
:1002BC00FE4040F44000704781F0004102E000BF76
:1002CC0083F0004330B54FEA41044FEA430594EA0A
:1002DC00050F08BF90EA020F1FBF54EA000C55EA45
:1002EC00020C7FEA645C7FEA655C00F0E2804FEA16
:1002FC005454D4EB5555B8BF6D420CDD2C4480EAF8
:10030C00020281EA030382EA000083EA010180EA27
:10031C00020281EA0303362D88BF30BD11F0004F75
:10032C004FEA01314FF4801C4CEA113102D04042AB
:10033C0061EB410113F0004F4FEA03334CEA1333E6
:10034C0002D0524263EB430394EA050F00F0A780FE
:10035C00A4F10104D5F1200E0DDB02FA0EFC22FAF9
:10036C0005F2801841F1000103FA0EF2801843FAED
:10037C0005F359410EE0A5F120050EF1200E012ADE
:10038C0003FA0EFC28BF4CF0020C43FA05F3C0181C
:10039C0051EBE37101F0004507D54FF0000EDCF195
:1003AC00000C7EEB00006EEB0101B1F5801F1BD33E
:1003BC00B1F5001F0CD349085FEA30004FEA3C0C42
:1003CC0004F101044FEA445212F5800F80F09A8038
:1003DC00BCF1004F08BF5FEA500C50F1000041EB3C
:1003EC00045141EA050130BD5FEA4C0C404141EB40
:1003FC000101013C28BFB1F5801FE9D291F0000F3B
:10040C0004BF01460020B1FA81F308BF2033A3F1E9
:10041C000B03B3F120020CDA0C3208DD02F1140CE0
:10042C00C2F10C0201FA0CF021FA02F10CE002F11B
:10043C001402D8BFC2F1200C01FA02F120FA0CFC14
:10044C00DCBF41EA0C019040E41AA2BF01EB04515D
:10045C00294330BD6FEA04041F3C1CDA0C340EDC5B
:10046C0004F11404C4F1200220FA04F001FA02F39E
:10047C0040EA030021FA04F345EA030130BDC4F15C
:10048C000C04C4F1200220FA02F001FA04F340EA51
:10049C000300294630BD21FA04F0294630BD94F002
:1004AC00000F83F4801306BF81F480110134013DE9
:1004BC004EE77FEA645C18BF7FEA655C29D094EA5A
:1004CC00050F08BF90EA020F05D054EA000C04BFD8
:1004DC001946104630BD91EA030F1EBF00210020C3
:1004EC0030BD5FEA545C05D14000494128BF41F062
:1004FC00004130BD14F580043CBF01F5801130BDC6
:10050C0001F0004545F0FE4141F470014FF0000050
:10051C0030BD7FEA645C1ABF194610467FEA655C01
:10052C001CBF0B46024650EA013406BF52EA0335A3
:10053C0091EA030F41F4002130BD00BF90F0000F91
:10054C0004BF0021704730B54FF4806404F13204CD
:10055C004FF000054FF0000150E700BF90F0000F86
:10056C0004BF0021704730B54FF4806404F13204AD
:10057C0010F0004548BF40424FF000013EE700BF7D
:10058C0042004FEAE2014FEA31014FEA02701FBF0D
:10059C0012F07F4393F07F4F81F06051704732F03F
:1005AC007F4208BF704793F07F4F04BF41F4002196
:1005BC00704730B54FF4607401F0004521F00041F4
:1005CC001CE700BF50EA010208BF704730B54FF07E
:1005DC0000050AE050EA010208BF704730B511F07F
:1005EC00004502D5404261EB41014FF4806404F1B7
:1005FC0032045FEA915C3FF4D8AE4FF003025FEA3D
:10060C00DC0C18BF03325FEADC0C18BF033202EBC0
:10061C00DC02C2F1200300FA03FC20FA02F001FA1A
:10062C0003FE40EA0E0021FA02F11444BDE600BFBD
:10063C0080F0004002E000BF81F0004142001FBF8B
:10064C005FEA410392EA030F7FEA226C7FEA236C94
:10065C006AD04FEA1262D2EB1363C1BFD218414089
:10066C0048404140B8BF5B42192B88BF704710F01F
:10067C00004F40F4000020F07F4018BF404211F0C2
:10068C00004F41F4000121F07F4118BF494292EA2A
:10069C00030F3FD0A2F1010241FA03FC10EB0C0056
:1006AC00C3F1200301FA03F100F0004302D54942E3
:1006BC0060EB4000B0F5000F13D3B0F1807F06D390
:1006CC0040084FEA310102F10102FE2A51D2B1F188
:1006DC00004F40EBC25008BF20F0010040EA03007D
:1006EC007047490040EB0000013A28BFB0F5000FFD
:1006FC00EDD2B0FA80FCACF1080CB2EB0C0200FAB3
:10070C000CF0AABF00EBC25052421843BCBFD04001
:10071C001843704792F0000F81F4000106BF80F47B
:10072C0000000132013BB5E74FEA41037FEA226C3E
:10073C0018BF7FEA236C21D092EA030F04D092F009
:10074C00000F08BF0846704790EA010F1CBF00203D
:10075C00704712F07F4F04D1400028BF40F000409A
:10076C00704712F100723CBF00F50000704700F0BA
:10077C00004343F0FE4040F4000070477FEA2262E1
:10078C0016BF08467FEA23630146420206BF5FEAB2
:10079C00412390EA010F40F4800070474FF00003B2
:1007AC0004E000BF10F0004348BF40425FEA000C79
:1007BC0008BF704743F0964301464FF000001CE021
:1007CC0050EA010208BF70474FF000030AE000BF77
:1007DC0050EA010208BF704711F0004302D54042B5
:1007EC0061EB41015FEA010C02BF84460146002027
:1007FC0043F0B64308BFA3F18053A3F50003BCFA42
:10080C008CF2083AA3EBC25310DB01FA02FC6344EE
:10081C0000FA02FCC2F12002BCF1004F20FA02F2F5
:10082C0043EB020008BF20F00100704702F12002E8
:10083C0001FA02FCC2F1200250EA4C0021FA02F249
:10084C0043EB020008BF20EADC7070474FF0FF3C1E
:10085C0006E000BF4FF0010C02E000BF4FF0010CAE
:10086C004DF804CD4FEA40024FEA41037FEA226C77
:10087C0018BF7FEA236C11D001B052EA530C18BF99
:10088C0090EA010F58BFB2EB030088BFC81738BFFE
:10089C006FEAE17018BF40F0010070477FEA226CEC
:1008AC0002D15FEA402C05D17FEA236CE4D15FEAE8
:1008BC00412CE1D05DF8040B704700BF844608461C
:1008CC006146FFE70FB5FFF7C9FF002848BF10F1DD
:1008DC00000F0FBD4DF808EDFFF7F4FF0CBF012022
:1008EC0000205DF808FB00BF4DF808EDFFF7EAFFAC
:1008FC0034BF012000205DF808FB00BF4DF808ED67
:10090C00FFF7E0FF94BF012000205DF808FB00BF5B
:10091C004DF808EDFFF7D2FF94BF012000205DF8E1
:10092C0008FB00BF4DF808EDFFF7C8FF34BF0120EE
:10093C0000205DF808FB00BF80B582B000AF034615
:10094C000A46FB801346BB80B7F90630B3F5616FDE
:10095C0002DB40F60F63FB80B7F9063013F5616FCD
:10096C0002DC4FF2F113FB80B7F90430B3F5616F81
:10097C0002DB40F60F63BB80B7F9043013F5616FEF
:10098C0002DC4FF2F113BB80B7F90630002B0ADB07
:10099C0001220421184801F0B1FF184B1B68B7F96C
:1009AC0006205A630AE000220421134801F0A6FF36
:1009BC00B7F906305A42114B1B685A63B7F9043029
:1009CC00002B0ADB012208210B4801F097FF0B4B8F
:1009DC001B68B7F904209A630AE000220821064834
:1009EC0001F08CFFB7F904305A42044B1B689A6330
:1009FC0000BF0837BD4680BD0008014078000020CC
:100A0C0080B582B000AF01224FF480710B4801F029
:100A1C0075FF00237B6003E000BF7B6801337B60C4
:100A2C007B68472BF8DD00224FF48071034801F0FE
:100A3C0065FF00BF0837BD4680BD00BF0008014000
:100A4C0080B584B000AF78607B681B68394A9342EC
:100A5C006BD17B681B7F082B67D1374B1B78DBB2C4
:100A6C00002B1AD10C21354803F04EF90346344AB9
:100A7C001360314B01221A70304B1B681A6A2F4BD2
:100A8C001B6822F400521A622C4B1B681A6A2B4BFF
:100A9C001B6842F400521A6247E00C21274803F00D
:100AAC0033F90346274A1360234B00221A70234B59
:100ABC001B681A6A214B1B6822F400521A621F4BE6
:100ACC001A681E4B1B68126A1A621E4B1A681C4B62
:100ADC001B689A4206D91B4B1A68194B1B68D31A10
:100AEC00FB6007E0174B1A68154B1B68D31A03F50C
:100AFC008033FB60FB68002B11D0FB6849F26F421E
:100B0C0093420CD8F868FFF749FE03460E49184685
:100B1C00FFF71EFB03461A460C4B1A6002E00B4B08
:100B2C000B4A1A600B4B01221A7000BF1037BD46DE
:100B3C0080BD00BF00040040CC010020C00000209C
:100B4C00C4010020C8010020B29D2F3ED00100201E
:100B5C0000007A45CD01002080B400AF094B1A8803
:100B6C00094B1A80074B5A88084B1A80054B9A88F8
:100B7C00074B1A80034BDA88064B1A8000BFBD4620
:100B8C0080BC7047D8010020E0010020E201002069
:100B9C00E4010020E601002080B500AFFFF7DCFF88
:100BAC000E4B1B8840F6C412934211D80C4B1B8879
:100BBC0040F6C41293420BD80A4B1B8840F6C41261
:100BCC00934205D8084B1B8840F6C412934201D9B6
:100BDC00012300E00023184680BD00BFE001002087
:100BEC00E2010020E4010020E601002080B590B075
:100BFC0000AF00F0B1FD00F023F900F009FB00F0AC
:100C0C00E9FA00F0E3F900F061F900F079FA00F08C
:100C1C004DFA0021774802F05BFB0421754802F085
:100C2C0057FB01221021744801F068FE0C21734817
:100C3C0002F048FC04227249724800F0EBFE0023DB
:100C4C00FB630AE04FF400516F4801F06FFE9620F1
:100C5C0000F0E4FDFB6B0133FB63FB6B022BF1DD5E
:100C6C0001224FF40051684801F048FE3B466749A9
:100C7C00184603F003FF3B461846FFF761FA03469C
:100C8C009AB239466423624803F024FD00F0BCFD9F
:100C9C000246604B1B68D31AC72B06D9FFF7B0FE70
:100CAC0000F0B2FD03465B4A1360FFF775FF034685
:100CBC00002B27D058495848FFF73EFE4FF496704A
:100CCC0000F0ACFD4FF4FA615348FFF735FE4FF4DA
:100CDC00167000F0A3FD00224FF400514A4801F0B9
:100CEC000DFE3B464D49184603F0C8FE3B461846E0
:100CFC00FFF726FA03469AB239466423444803F0B8
:100D0C00E9FC75E0464B1B78DBB2012B6DD1444BF3
:100D1C0000221A70434B1B6843491846FFF7E4FD49
:100D2C000346002B1FD03F4B1B684FF000011846A9
:100D3C00FFF7F8FD0346002B15D000210020FFF72C
:100D4C00FBFD01224FF400512F4801F0D7FD354B2C
:100D5C001B681846FFF714FC02460B46384633490D
:100D6C0003F08CFE36E02F4B1B6831491846FFF719
:100D7C00BBFD0346002B17D040F6C41140F6C4103F
:100D8C00FFF7DAFD00224FF400511F4801F0B6FDC9
:100D9C00244B1B681846FFF7F3FB02460B463846FC
:100DAC00244903F06BFE15E040F2DC512248FFF7BA
:100DBC00C3FD01224FF40051134801F09FFD194B64
:100DCC001B681846FFF7DCFB02460B4638461B49EE
:100DDC0003F054FE3B461846FFF7B2F903469AB2AD
:100DEC00394664230A4803F075FC0A2000F016FD0E
:100DFC004CE700BF7800002000080140C000002034
:100E0C00D801002008010020001001400054000807
:100E1C007C010020D401002030F8FFFF185400089A
:100E2C00CD010020D00100200000C8422C54000845
:100E3C00000096434454000824FAFFFF6054000855
:100E4C0080B590B000AF07F1180328220021184696
:100E5C0003F036FE3B1D00221A605A609A60DA607D
:100E6C001A610123BB614FF48033FB6100233B62A9
:100E7C000123BB6202237B634FF48033BB634FF4CB
:100E8C00E013FB6307F11803184601F069FD0346F4
:100E9C00002B01D000F032FA0F237B600223BB60E1
:100EAC000023FB604FF480633B6100237B613B1D9F
:100EBC000221184601F0D6FF0346002B01D000F0AA
:100ECC001DFA00BF4037BD4680BD000080B58EB016
:100EDC0000AF07F1280300221A605A609A60DA60AA
:100EEC0007F1200300221A605A603B1D00221A6091
:100EFC005A609A60DA601A615A619A61324B4FF00B
:100F0C0080421A60304B00225A602F4B00229A60AC
:100F1C002D4B40F60F62DA602B4B00221A612A4BE4
:100F2C0000229A61284802F02BF90346002B01D0CD
:100F3C0000F0E4F94FF48053BB6207F12803194623
:100F4C00214802F019FE0346002B01D000F0D6F91F
:100F5C001D4802F064F90346002B01D000F0CEF9D5
:100F6C0000233B6200237B6207F1200319461648DD
:100F7C0003F0F0FA0346002B01D000F0BFF9602318
:100F8C007B600023BB600023FB6000237B613B1D67
:100F9C00002219460C4802F02DFD0346002B01D00F
:100FAC0000F0ACF93B1D04221946074802F022FD63
:100FBC000346002B01D000F0A1F9034800F0AEFA73
:100FCC0000BF3837BD4680BD7800002080B58AB0A0
:100FDC0000AF07F1180300221A605A609A60DA60B9
:100FEC0007F1100300221A605A603B4600221A6077
:100FFC005A609A60DA602B4B2B4A1A60294B4722B5
:10100C005A60284B00229A60264B4FF6FF72DA602A
:10101C00244B00221A61234B00229A61214802F0D2
:10102C00AFF80346002B01D000F068F94FF4805361
:10103C00BB6107F1180319461A4802F09DFD0346DF
:10104C00002B01D000F05AF9164802F0E3F90346E0
:10105C00002B01D000F052F900233B6100237B618F
:10106C0007F1100319460F4803F074FA0346002BDE
:10107C0001D000F043F900233B6001237B60002387
:10108C00BB600423FB603B460C221946054802F06A
:10109C0015FC0346002B01D000F030F900BF2837B7
:1010AC00BD4680BDC00000200004004080B500AFEC
:1010BC00114B124A1A60104B4FF4E1325A600E4B2E
:1010CC0000229A600C4B0022DA600B4B00221A6152
:1010DC00094B0C225A61084B00229A61064B0022E4
:1010EC00DA61054803F0A6FA0346002B01D000F0A4
:1010FC0005F900BF80BD00BF7C0100200038014015
:10110C0080B584B000AF3B1D00221A605A609A6013
:10111C002E4B2F4A1A602D4B4FF480729A602B4B3A
:10112C0001221A73294B00221A75284B4FF46022A6
:10113C00DA61264B00225A60244B04221A612348A0
:10114C0000F090FB0346002B01D000F0D7F80823E9
:10115C007B600123BB600523FB603B1D19461B48CC
:10116C0000F052FD0346002B01D000F0C7F8052318
:10117C007B600223BB603B1D1946144800F044FD04
:10118C000346002B01D000F0B9F806237B60032343
:10119C00BB603B1D19460D4800F036FD0346002B85
:1011AC0001D000F0ABF807237B600423BB603B1D30
:1011BC001946064800F028FD0346002B01D000F02C
:1011CC009DF800BF1037BD4680BD00BF0801002050
:1011DC000024014080B582B000AF0C4B5B690B4A18
:1011EC0043F001035361094B5B6903F001037B601E
:1011FC007B68002200210B2000F0D7FF0B2000F0B1
:10120C00F0FF00BF0837BD4680BD00BF0010024094
:10121C0080B588B000AF07F1100300221A605A6045
:10122C009A60DA60324B9B69314A43F01003936148
:10123C002F4B9B6903F01003FB60FB682C4B9B69E5
:10124C002B4A43F020039361294B9B6903F0200345
:10125C00BB60BB68264B9B69254A43F00403936132
:10126C00234B9B6903F004037B607B68204B9B69D9
:10127C001F4A43F0080393611D4B9B6903F008035D
:10128C003B603B6800221C211A4801F037FB00220E
:10129C004FF48071174801F031FB01224FF40051DB
:1012AC00154801F02BFB1C233B6101237B610023C0
:1012BC00BB610223FB6107F1100319460D4801F0D5
:1012CC0099F94FF480733B6107F1100319460948F3
:1012DC0001F090F94FF400533B6107F110031946EC
:1012EC00054801F087F900BF2037BD4680BD00BF1F
:1012FC0000100240000801400010014080B400AF13
:10130C0072B600BF00BFFDE780B485B000AF154BCF
:10131C009B69144A43F001039361124B9B6903F0E0
:10132C000103BB60BB680F4BDB690E4A43F0805373
:10133C00D3610C4BDB6903F080537B607B680A4BF9
:10134C005B68FB60FB6823F0E063FB60FB6843F0C9
:10135C008063FB60044AFB68536000BF1437BD46D2
:10136C0080BC7047001002400000014080B58AB07C
:10137C0000AF786007F1180300221A605A609A6077
:10138C00DA607B681B68334A93425FD1324B9B69AE
:10139C00314A43F4007393612F4B9B6903F4007340
:1013AC007B617B692C4B9B692B4A43F00403936153
:1013BC00294B9B6903F004033B613B69264B9B69FA
:1013CC00254A43F008039361234B9B6903F0080300
:1013DC00FB60FB68E023BB610323FB6107F118038F
:1013EC0019461E4801F006F90123BB610323FB617A
:1013FC0007F1180319461A4801F0FCF8194B1A4A60
:10140C001A60184B00225A60164B00229A60154B3A
:10141C008022DA60134B4FF400721A61114B4FF4B7
:10142C0000625A610F4B20229A610E4B0022DA6146
:10143C000C4800F0F1FE0346002B01D0FFF75EFFD5
:10144C007B68084A1A62074A7B68536200BF2837D8
:10145C00BD4680BD00240140001002400008014040
:10146C00000C0140380100200800024080B58AB011
:10147C0000AF786007F1180300221A605A609A6076
:10148C00DA607B681B68B3F1804F0CD1204BDB69B1
:10149C001F4A43F00103D3611D4BDB6903F00103C9
:1014AC007B617B6930E07B681B681A4A93422BD1C5
:1014BC00174BDB69164A43F00203D361144BDB690B
:1014CC0003F002033B613B69114B9B69104A43F0EB
:1014DC00080393610E4B9B6903F00803FB60FB68E8
:1014EC000223BB610023FB6100233B6207F118035D
:1014FC001946094801F07EF8002200211D2000F059
:10150C0054FE1D2000F06DFE00BF2837BD4680BD87
:10151C000010024000040040000C014080B588B06F
:10152C0000AF786007F1100300221A605A609A60CD
:10153C00DA607B681B68B3F1804F17D10D4B9B6948
:10154C000C4A43F0040393610A4B9B6903F00403B8
:10155C00FB60FB6803233B6102237B610223FB617D
:10156C0007F110031946044801F044F800BF203776
:10157C00BD4680BD001002400008014080B588B017
:10158C0000AF786007F1100300221A605A609A606D
:10159C00DA607B681B681C4A934231D11B4B9B69F8
:1015AC001A4A43F480439361184B9B6903F48043BC
:1015BC00FB60FB68154B9B69144A43F00403936171
:1015CC00124B9B6903F00403BB60BB684FF40073C0
:1015DC003B6102237B610323FB6107F11003194676
:1015EC000B4801F007F84FF480633B6100237B61EB
:1015FC000023BB6107F110031946054800F0FAFF00
:10160C0000BF2037BD4680BD0038014000100240AD
:10161C000008014080B400AF00BFFDE780B400AF0C
:10162C0000BFFDE780B400AF00BFFDE780B400AFA2
:10163C0000BFFDE780B400AF00BFFDE780B400AF92
:10164C0000BFBD4680BC704780B400AF00BFBD4634
:10165C0080BC704780B400AF00BFBD4680BC7047F3
:10166C0080B500AF00F0BEF800BF80BD80B500AF04
:10167C00024800F08BFE00BF80BD00BF3801002087
:10168C0080B500AF024802F029F800BF80BD00BF52
:10169C00C000002080B586B000AF7860144A154BAE
:1016AC00D31A7B617B693B61134B1B68002B02D106
:1016BC00114B124A1A60104B1A687B6813443A6932
:1016CC009A4207D203F004FA03460C221A604FF038
:1016DC00FF3309E0084B1B68FB60074B1A687B68FB
:1016EC001344054A1360FB6818461837BD4680BD85
:1016FC000050002000040000E80100203803002006
:10170C0080B400AF00BFBD4680BC7047FFF7F8FF48
:10171C000B480C490C4A002302E0D458C450043343
:10172C00C4188C42F9D3094A094C002301E0136018
:10173C000432A242FBD303F0D1F9FFF757FA7047FA
:10174C00000000205C000020EC5400085C0000202D
:10175C0038030020FEE7000080B500AF084B1B6883
:10176C00074A43F010031360032000F013FD0F2011
:10177C0000F008F8FFF7C8FD0023184680BD00BF35
:10178C000020024080B582B000AF7860124B1A681E
:10179C00124B1B7819464FF47A73B3FBF1F3B2FB7F
:1017AC00F3F3184600F02BFD0346002B01D0012368
:1017BC000EE07B680F2B0AD8002279684FF0FF30BF
:1017CC0000F0F3FC064A7B681360002300E0012361
:1017DC0018460837BD4680BD0000002008000020D8
:1017EC000400002080B400AF054B1B781A46054B53
:1017FC001B681344034A136000BFBD4680BC70478E
:10180C0008000020EC01002080B400AF024B1B68E4
:10181C001846BD4680BC7047EC01002080B584B0F2
:10182C0000AF7860FFF7F0FFB8607B68FB60FB6887
:10183C00B3F1FF3F05D00A4B1B781A46FB681344E3
:10184C00FB6000BFFFF7E0FF0246BB68D31AFA68E3
:10185C009A42F7D800BF00BF1037BD4680BD00BF0D
:10186C000800002080B586B000AF78600023FB75BF
:10187C0000233B610023BB600023FB607B68002BD3
:10188C0001D10123BEE07B689B68002B7B689B6ABF
:10189C00002B09D17B680022DA627B68002283F876
:1018AC0024207868FFF762FD786800F0FFFA0346A1
:1018BC00FB757B689B6A03F01003002B40F099804A
:1018CC00FB7D002B40F095807B689B6A23F488534A
:1018DC0023F0020343F002027B689A627B685A6829
:1018EC007B68DB691A437B681B7B5B001343BA681C
:1018FC001343BB607B689B68B3F5807F03D07B6828
:10190C009B68012B02D14FF4807300E000233A69ED
:10191C0013433B617B681B7D012B19D17B681B7BBF
:10192C00002B09D17B689B69013B5A033B6913432C
:10193C0043F400633B610BE07B689B6A43F020023D
:10194C007B689A627B68DB6A43F001027B68DA622F
:10195C007B681B685B6823F469417B681B683A6988
:10196C000A435A607B681B689A68284B13407A6854
:10197C001268B9680B4393607B689B68B3F5807FF2
:10198C0003D07B689B68012B04D17B681B69013BEE
:10199C001B05FB607B681B68DB6A23F470017B68AA
:1019AC001B68FA680A43DA627B681B689A68184BF2
:1019BC001340BA689A420BD17B680022DA627B68CA
:1019CC009B6A23F0030343F001027B689A6218E0E0
:1019DC007B689B6A23F0120343F010027B689A62C7
:1019EC007B68DB6A43F001027B68DA620123FB75DA
:1019FC0007E07B689B6A43F010027B689A620123C4
:101A0C00FB75FB7D18461837BD4680BDFDF7E1FF21
:101A1C00FE0E1FFF80B586B000AFF860B9607A602B
:101A2C000023FB75FB681B68644A934204D0FB6877
:101A3C001B68634A934206D1604B5B6803F47023C6
:101A4C00002B40F0B380FB6893F82430012B01D1BC
:101A5C000223AEE0FB68012283F82420F86800F032
:101A6C00CBF90346FB75FB7D002B40F09A80FB689D
:101A7C009B6A23F4706323F0010343F48072FB68C8
:101A8C009A62FB681B684E4A934205D14B4B5B68CC
:101A9C0003F47023002B15D1FB689B6A23F480128E
:101AAC00FB689A62FB681B685B6803F48063002B1D
:101ABC0026D0FB689B6A23F4405343F48052FB68A6
:101ACC009A621DE0FB689B6A43F48012FB689A6281
:101ADC00FB681B68394A934204D0FB681B68384A80
:101AEC0093420DD1354B5B6803F48063002B07D018
:101AFC00FB689B6A23F4405343F48052FB689A6260
:101B0C00FB689B6A03F48053002B06D0FB68DB6AEE
:101B1C0023F00602FB68DA6202E0FB680022DA625C
:101B2C00FB68002283F82420FB681B6A254A9A6212
:101B3C00FB681B6A244ADA62FB681B6A234A1A6335
:101B4C00FB681B686FF002021A60FB681B689A68DE
:101B5C00FB681B6842F480729A60FB68186AFB6829
:101B6C001B684C331946BA687B6800F0AFFBFB6806
:101B7C001B689B6803F46023B3F5602F08D1FB68E6
:101B8C001B689A68FB681B6842F4A0029A600FE01D
:101B9C00FB681B689A68FB681B6842F480129A60A9
:101BAC0006E0FB68002283F8242001E00123FB758A
:101BBC00FB7D18461837BD4680BD00BF0024014090
:101BCC00002801403B1F0008B71F0008D31F000866
:101BDC0080B483B000AF786000BF0C37BD4680BCCA
:101BEC00704780B483B000AF786000BF0C37BD463F
:101BFC0080BC704780B483B000AF786000BF0C37F6
:101C0C00BD4680BC7047000080B485B000AF7860E2
:101C1C0039600023FB730023BB607B6893F824308E
:101C2C00012B01D10223DCE07B68012283F8242004
:101C3C003B685B68062B1CD87B681B68596B3B6840
:101C4C005A6813469B001344053B1F2202FA03F308
:101C5C00DB4319403B6818683B685A6813469B0085
:101C6C001344053B00FA03F27B681B680A435A6372
:101C7C003CE03B685B680C2B1CD87B681B68196BC1
:101C8C003B685A6813469B001344233B1F2202FAFD
:101C9C0003F3DB4319403B6818683B685A681346EA
:101CAC009B001344233B00FA03F27B681B680A4336
:101CBC001A631BE07B681B68D96A3B685A68134639
:101CCC009B001344413B1F2202FA03F3DB431940F0
:101CDC003B6818683B685A6813469B001344413BA9
:101CEC0000FA03F27B681B680A43DA623B681B68E4
:101CFC00092B1CD97B681B68D9683B681A6813468A
:101D0C005B0013441E3B072202FA03F3DB4319402A
:101D1C003B6898683B681A6813465B0013441E3B8B
:101D2C0000FA03F27B681B680A43DA6019E07B68EF
:101D3C001B6819693B681A6813465B001344072239
:101D4C0002FA03F3DB4319403B6898683B681A6856
:101D5C0013465B00134400FA03F27B681B680A43CA
:101D6C001A613B681B68102B03D03B681B68112B56
:101D7C0032D17B681B681D4A934225D17B681B6856
:101D8C009B6803F40003002B26D17B681B689A68C0
:101D9C007B681B6842F400029A603B681B68102B3E
:101DAC001AD1134B1B68134AA2FB03239A0C13463C
:101DBC009B0013445B00BB6002E0BB68013BBB6053
:101DCC00BB68002BF9D107E07B689B6A43F02002CB
:101DDC007B689A620123FB737B68002283F82420C2
:101DEC00FB7B18461437BD4680BC7047002401406D
:101DFC000000002083DE1B4380B584B000AF786008
:101E0C000023FB600023BB607B681B689B6803F0AE
:101E1C000103012B40D07B681B689A687B681B68A8
:101E2C0042F001029A601F4B1B681F4AA2FB03235E
:101E3C009B0CBB6002E0BB68013BBB60BB68002B2A
:101E4C00F9D1FFF7E1FCF8601FE0FFF7DDFC02467B
:101E5C00FB68D31A022B18D97B681B689B6803F0AC
:101E6C000103012B11D07B689B6A43F010027B6845
:101E7C009A627B68DB6A43F001027B68DA627B68FA
:101E8C00002283F82420012307E07B681B689B68F1
:101E9C0003F00103012BD8D1002318461037BD469F
:101EAC0080BD00BF0000002083DE1B4380B584B0E2
:101EBC0000AF78600023FB607B681B689B6803F0B5
:101ECC000103012B2ED17B681B689A687B681B6809
:101EDC0022F001029A60FFF797FCF8601BE0FFF715
:101EEC0093FC0246FB68D31A022B14D97B681B683F
:101EFC009B6803F00103012B0DD17B689B6A43F0B7
:101F0C0010027B689A627B68DB6A43F001027B6893
:101F1C00DA62012307E07B681B689B6803F001030E
:101F2C00012BDCD0002318461037BD4680BD80B590
:101F3C0084B000AF78607B685B6AFB60FB689B6A6F
:101F4C0003F05003002B27D1FB689B6A43F400720B
:101F5C00FB689A62FB681B689B6803F46023B3F50B
:101F6C00602F15D1FB681B7B002B11D1FB689B6A82
:101F7C0023F48072FB689A62FB689B6A03F48053BB
:101F8C00002B05D1FB689B6A43F00102FB689A6247
:101F9C00F868FFF71DFE04E0FB681B6A1B6B786892
:101FAC00984700BF1037BD4680BD80B584B000AFE8
:101FBC0078607B685B6AFB60F868FFF712FE00BF15
:101FCC001037BD4680BD80B584B000AF78607B68AB
:101FDC005B6AFB60FB689B6A43F04002FB689A6299
:101FEC00FB68DB6A43F00402FB68DA62F868FFF70F
:101FFC0001FE00BF1037BD4680BD000080B485B027
:10200C0000AF78607B6803F00703FB600C4BDB6868
:10201C00BB60BA684FF6FF031340BB60FB681A0243
:10202C00BB68134343F0BF6343F40033BB60044A03
:10203C00BB68D36000BF1437BD4680BC704700BF7F
:10204C0000ED00E080B400AF044BDB681B0A03F02A
:10205C0007031846BD4680BC704700BF00ED00E08A
:10206C0080B483B000AF0346FB7197F90730002BA7
:10207C000BDBFB7903F01F02064997F907305B096C
:10208C00012000FA02F241F8232000BF0C37BD46B4
:10209C0080BC704700E100E080B483B000AF034621
:1020AC003960FB7197F90730002B0ADB3B68DAB219
:1020BC000C4997F907301201D2B20B4483F8002374
:1020CC000AE03B68DAB20849FB7903F00F03043BE2
:1020DC001201D2B20B441A7600BF0C37BD4680BC3D
:1020EC00704700BF00E100E000ED00E080B489B073
:1020FC0000AFF860B9607A60FB6803F00703FB611E
:10210C00FB69C3F10703042B28BF0423BB61FB69E4
:10211C000433062B02D9FB69033B00E000237B61EF
:10212C004FF0FF32BB6902FA03F3DA43BB681A4083
:10213C007B699A404FF0FF317B6901FA03F3D94375
:10214C007B680B40134318462437BD4680BC704750
:10215C0080B582B000AF78607B68013BB3F1807FC3
:10216C0001D301230FE00A4A7B68013B53600F2126
:10217C004FF0FF30FFF790FF054B00229A60044BA5
:10218C0007221A60002318460837BD4680BD00BFE1
:10219C0010E000E080B582B000AF78607868FFF79F
:1021AC002DFF00BF0837BD4680BD80B586B000AF9F
:1021BC000346B9607A60FB7300237B61FFF742FF33
:1021CC0078617A68B9687869FFF790FF024697F9E9
:1021DC000F3011461846FFF75FFF00BF1837BD469A
:1021EC0080BD80B582B000AF0346FB7197F9073014
:1021FC001846FFF735FF00BF0837BD4680BD80B5D8
:10220C0082B000AF78607868FFF7A2FF03461846EB
:10221C000837BD4680BD000080B485B000AF786043
:10222C000023FB607B68002B01D1012343E07B681A
:10223C001B681A46224B1344224AA2FB03231B0998
:10224C009A007B681A647B681F4ADA637B680222F7
:10225C0083F821207B681B681B68FB60FB6823F4F8
:10226C007F5323F03003FB607B685A687B689B6864
:10227C001A437B68DB681A437B681B691A437B68CB
:10228C005B691A437B689B691A437B68DB69134360
:10229C00FA681343FB607B681B68FA681A607B68FA
:1022AC0000229A637B68012283F821207B6800223C
:1022BC0083F82020002318461437BD4680BC704795
:1022CC00F8FFFDBFCDCCCCCC0000024080B586B071
:1022DC0000AFF860B9607A603B600023FB75FB6867
:1022EC0093F82030012B01D102234BE0FB68012233
:1022FC0083F82020FB6893F82130DBB2012B3AD114
:10230C00FB68022283F82120FB6800229A63FB6899
:10231C001B681A68FB681B6822F001021A603B6894
:10232C007A68B968F86800F037F9FB68DB6A002B4B
:10233C0008D0FB681B681A68FB681B6842F00E0229
:10234C001A600FE0FB681B681A68FB681B6822F0B8
:10235C0004021A60FB681B681A68FB681B6842F071
:10236C000A021A60FB681B681A68FB681B6842F05B
:10237C0001021A6005E0FB68002283F8202002238A
:10238C00FB75FB7D18461837BD4680BD80B584B003
:10239C0000AF78607B68DB6B1B68FB607B681B683D
:1023AC001B68BB607B681B6C04229A40FB68134063
:1023BC00002B4FD0BB6803F00403002B4AD07B6882
:1023CC001B681B6803F02003002B07D17B681B687C
:1023DC001A687B681B6822F004021A607B681B6811
:1023EC00664A934229D07B681B68654A934222D087
:1023FC007B681B68634A93421AD07B681B68624AED
:10240C00934212D07B681B68604A93420AD07B6867
:10241C001B685F4A934202D14FF480030EE04FF0E9
:10242C0080630BE04FF4802308E04FF4804305E019
:10243C004FF4806302E0402300E00423554A5360CC
:10244C007B68DB6A002B00F094807B68DB6A786821
:10245C0098478EE07B681B6C02229A40FB68134005
:10246C00002B56D0BB6803F00203002B51D07B68C5
:10247C001B681B6803F02003002B0BD17B681B68C7
:10248C001A687B681B6822F00A021A607B680122BA
:10249C0083F821207B681B68384A934229D07B68DB
:1024AC001B68374A934222D07B681B68354A93429B
:1024BC001AD07B681B68344A934212D07B681B6825
:1024CC00324A93420AD07B681B68314A934202D14C
:1024DC004FF400130EE04FF000730BE04FF4003399
:1024EC0008E04FF4005305E04FF4007302E02023A2
:1024FC0000E00223274A53607B68002283F82020E7
:10250C007B689B6A002B34D07B689B6A7868984701
:10251C002FE07B681B6C08229A40FB681340002B51
:10252C0028D0BB6803F00803002B23D07B681B6802
:10253C001A687B681B6822F00E021A607B681A6CA2
:10254C007B68DB6B012101FA02F25A607B68012285
:10255C009A637B68012283F821207B68002283F830
:10256C0020207B681B6B002B04D07B681B6B78686E
:10257C00984700BF00BF1037BD4680BD0800024021
:10258C001C0002403000024044000240580002404F
:10259C006C0002400000024080B485B000AFF860CF
:1025AC00B9607A603B60FB681A6CFB68DB6B0121DD
:1025BC0001FA02F25A60FB681B683A685A60FB68C1
:1025CC005B68102B08D1FB681B687A689A60FB6803
:1025DC001B68BA68DA6007E0FB681B68BA689A6027
:1025EC00FB681B687A68DA6000BF1437BD4680BC94
:1025FC007047000080B48BB000AF78603960002366
:10260C007B6200233B6269E101227B6A02FA03F3DD
:10261C00FB613B681B68FA691340BB61BA69FB69D3
:10262C009A4240F058813B685B689A4A93425ED06C
:10263C00984A934275D8984A934258D0964A9342F6
:10264C006FD8964A934252D0944A934269D8944A8E
:10265C0093424CD0924A934263D8924A934246D0CA
:10266C00904A93425DD8122B2AD8122B59D801A22A
:10267C0052F823F0FB260008D5260008E7260008B0
:10268C00292700082F2700082F2700082F270008CC
:10269C002F2700082F2700082F2700082F270008B6
:1026AC002F2700082F2700082F2700082F270008A6
:1026BC002F2700082F270008DD260008F126000828
:1026CC00794A934213D02CE03B68DB683B6229E0EB
:1026DC003B68DB6804333B6224E03B68DB6808330F
:1026EC003B621FE03B68DB680C333B621AE03B68E3
:1026FC009B68002B02D104233B6213E03B689B6870
:10270C00012B05D108233B627B68FA691A6109E049
:10271C0008233B627B68FA695A6103E000233B6241
:10272C0000E000BFBB69FF2B01D87B6801E07B6830
:10273C0004337B61BB69FF2B02D87B6A9B0002E0F0
:10274C007B6A083B9B003B617B691A680F213B69E4
:10275C0001FA03F3DB431A40396A3B6901FA03F3CC
:10276C001A437B691A603B685B6803F08053002B4B
:10277C0000F0B1804D4B9B694C4A43F001039361CF
:10278C004A4B9B6903F00103BB60BB68484A7B6AF8
:10279C009B08023352F82330FB607B6A03F003037F
:1027AC009B000F2202FA03F3DB43FA681340FB6031
:1027BC007B68404A934213D07B683F4A93420DD0CA
:1027CC007B683E4A934207D07B683D4A934201D1D5
:1027DC00032306E0042304E0022302E0012300E0CB
:1027EC0000237A6A02F0030292009340FA681343C2
:1027FC00FB602F497B6A9B080233FA6841F823205F
:10280C003B685B6803F48013002B06D02D4B9A6851
:10281C002C49BB6913438B6006E02A4B9A68BB6951
:10282C00DB43284913408B603B685B6803F400135F
:10283C00002B06D0234BDA682249BB691343CB60CB
:10284C0006E0204BDA68BB69DB431E491340CB60C2
:10285C003B685B6803F40033002B06D0194B5A68B5
:10286C001849BB6913434B6006E0164B5A68BB69A9
:10287C00DB43144913404B603B685B6803F48033C3
:10288C00002B21D00F4B1A680E49BB6913430B6008
:10289C0021E000BF000032100000311000002210B7
:1028AC000000211000001210000011100010024056
:1028BC000000014000080140000C014000100140E4
:1028CC0000140140000401400B4B1A68BB69DB4348
:1028DC00094913400B607B6A01337B623B681A68C1
:1028EC007B6A22FA03F3002B7FF48EAE00BF00BF8D
:1028FC002C37BD4680BC70470004014080B483B0C7
:10290C0000AF78600B467B8013467B707B78002B86
:10291C0003D07A887B681A6103E07B881A047B6891
:10292C001A6100BF0C37BD4680BC704780B485B0BF
:10293C0000AF78600B467B807B68DB68FB607A8835
:10294C00FB6813401A04FB68D9437B880B401A437D
:10295C007B681A6100BF1437BD4680BC704700000D
:10296C0080B586B000AF78607B68002B01D1012365
:10297C0072E27B681B6803F00103002B00F0878078
:10298C00924B5B6803F00C03042B0CD08F4B5B68F1
:10299C0003F00C03082B12D18C4B5B6803F48033CF
:1029AC00B3F5803F0BD1894B1B6803F40033002B2C
:1029BC006CD07B685B68002B68D101234CE27B6890
:1029CC005B68B3F5803F06D1804B1B687F4A43F4AC
:1029DC00803313602EE07B685B68002B0CD17B4B43
:1029EC001B687A4A23F480331360784B1B68774A50
:1029FC0023F4802313601DE07B685B68B3F5A02F84
:102A0C000CD1724B1B68714A43F4802313606F4BDB
:102A1C001B686E4A43F4803313600BE06B4B1B68EE
:102A2C006A4A23F480331360684B1B68674A23F4AB
:102A3C00802313607B685B68002B13D0FEF7E4FEE9
:102A4C00386108E0FEF7E0FE02463B69D31A642BBE
:102A5C0001D9032300E25D4B1B6803F40033002B08
:102A6C00F0D014E0FEF7D0FE386108E0FEF7CCFEA3
:102A7C0002463B69D31A642B01D90323ECE1534B77
:102A8C001B6803F40033002BF0D100E000BF7B681F
:102A9C001B6803F00203002B63D04C4B5B6803F004
:102AAC000C03002B0BD0494B5B6803F00C03082B79
:102ABC001CD1464B5B6803F48033002B16D1434B7F
:102ACC001B6803F00203002B05D07B681B69012BEC
:102ADC0001D00123C0E13D4B1B6823F0F8027B6859
:102AEC005B69DB00394913430B603AE07B681B6977
:102AFC00002B20D0364B01221A60FEF785FE386180
:102B0C0008E0FEF781FE02463B69D31A022B01D97D
:102B1C000323A1E12D4B1B6803F00203002BF0D023
:102B2C002A4B1B6823F0F8027B685B69DB002749A2
:102B3C0013430B6015E0264B00221A60FEF764FE6F
:102B4C00386108E0FEF760FE02463B69D31A022B9F
:102B5C0001D9032380E11D4B1B6803F00203002BFA
:102B6C00F0D17B681B6803F00803002B3AD07B681C
:102B7C009B69002B19D0174B01221A60FEF744FEFB
:102B8C00386108E0FEF740FE02463B69D31A022B7F
:102B9C0001D9032360E10D4B5B6A03F00203002BA8
:102BAC00F0D0012000F0CEFA1CE00A4B00221A6093
:102BBC00FEF72AFE38610FE0FEF726FE02463B695F
:102BCC00D31A022B08D9032346E100BF00100240A0
:102BDC000000424280044242924B5B6A03F00203C3
:102BEC00002BE9D17B681B6803F00403002B00F079
:102BFC00A6800023FB758B4BDB6903F08053002B05
:102C0C000DD1884BDB69874A43F08053D361854BE8
:102C1C00DB6903F08053BB60BB680123FB75824BFF
:102C2C001B6803F48073002B18D17F4B1B687E4A02
:102C3C0043F480731360FEF7E7FD386108E0FEF79C
:102C4C00E3FD02463B69D31A642B01D9032303E14C
:102C5C00754B1B6803F48073002BF0D07B68DB682A
:102C6C00012B06D16F4B1B6A6E4A43F001031362B2
:102C7C002DE07B68DB68002B0CD16A4B1B6A694A20
:102C8C0023F001031362674B1B6A664A23F00403AB
:102C9C0013621CE07B68DB68052B0CD1614B1B6A53
:102CAC00604A43F0040313625E4B1B6A5D4A43F0B7
:102CBC00010313620BE05B4B1B6A5A4A23F00103BE
:102CCC001362584B1B6A574A23F0040313627B6848
:102CDC00DB68002B15D0FEF797FD38610AE0FEF794
:102CEC0093FD02463B69D31A41F28832934201D9D3
:102CFC000323B1E04B4B1B6A03F00203002BEED015
:102D0C0014E0FEF781FD38610AE0FEF77DFD024616
:102D1C003B69D31A41F28832934201D903239BE0D9
:102D2C00404B1B6A03F00203002BEED1FB7D012B01
:102D3C0005D13C4BDB693B4A23F08053D3617B6864
:102D4C00DB69002B00F08780364B5B6803F00C03CB
:102D5C00082B61D07B68DB69022B46D1334B0022F8
:102D6C001A60FEF751FD386108E0FEF74DFD024692
:102D7C003B69D31A022B01D903236DE0294B1B6845
:102D8C0003F00073002BF0D17B681B6AB3F5803F16
:102D9C0008D1244B5B6823F400327B689B68214983
:102DAC0013434B601F4B5B6823F474127B68196AE6
:102DBC007B685B6A0B431B4913434B601B4B012223
:102DCC001A60FEF721FD386108E0FEF71DFD024692
:102DDC003B69D31A022B01D903233DE0114B1B682D
:102DEC0003F00073002BF0D035E0104B00221A607A
:102DFC00FEF70AFD386108E0FEF706FD02463B6966
:102E0C00D31A022B01D9032326E0064B1B6803F0CF
:102E1C000073002BF0D11EE07B68DB69012B07D11E
:102E2C00012319E000100240007000406000424293
:102E3C000B4B5B68FB60FB6803F480327B681B6A9E
:102E4C009A4206D1FB6803F470127B685B6A9A4263
:102E5C0001D0012300E0002318461837BD4680BD81
:102E6C000010024080B584B000AF786039607B6898
:102E7C00002B01D10123D0E06A4B1B6803F0070340
:102E8C003A689A4210D9674B1B6823F007026549D0
:102E9C003B6813430B60634B1B6803F007033A68F2
:102EAC009A4201D00123B8E07B681B6803F002034F
:102EBC00002B20D07B681B6803F00403002B05D08B
:102ECC00594B5B68584A43F4E06353607B681B685A
:102EDC0003F00803002B05D0534B5B68524A43F4B4
:102EEC0060535360504B5B6823F0F0027B689B6827
:102EFC004D4913434B607B681B6803F00103002BA7
:102F0C0040D07B685B68012B07D1474B1B6803F4EF
:102F1C000033002B15D101237FE07B685B68022B0B
:102F2C0007D1414B1B6803F00073002B09D101231F
:102F3C0073E03D4B1B6803F00203002B01D101230E
:102F4C006BE0394B5B6823F003027B685B683649A6
:102F5C0013434B60FEF758FCF8600AE0FEF754FC94
:102F6C000246FB68D31A41F28832934201D90323FB
:102F7C0053E02D4B5B6803F00C027B685B689B0095
:102F8C009A42EBD1274B1B6803F007033A689A422D
:102F9C0010D2244B1B6823F0070222493B681343D1
:102FAC000B60204B1B6803F007033A689A4201D070
:102FBC00012332E07B681B6803F00403002B08D06C
:102FCC00194B5B6823F4E0627B68DB68164913439A
:102FDC004B607B681B6803F00803002B09D0124B75
:102FEC005B6823F460527B681B69DB000E4913435A
:102FFC004B6000F021F802460B4B5B681B0903F099
:10300C000F030A49CB5C22FA03F3094A1360094BFC
:10301C001B681846FEF7B6FB002318461037BD4652
:10302C0080BD00BF00200240001002407C5400080C
:10303C00000000200400002080B487B000AF002303
:10304C00FB600023BB6000237B6100237B600023BB
:10305C003B611E4B5B68FB60FB6803F00C03042BAD
:10306C0002D0082B03D027E0194B3B6127E0FB680B
:10307C009B0C03F00F03174AD35C7B60FB6803F4D3
:10308C008033002B10D0114B5B685B0C03F00103F9
:10309C00114AD35CBB607B680D4A03FB02F2BB6830
:1030AC00B2FBF3F37B6104E07B680C4A02FB03F395
:1030BC007B617B693B6102E0054B3B6100BF3B6977
:1030CC0018461C37BD4680BC704700BF001002403C
:1030DC0000127A0094540008A454000800093D0022
:1030EC0080B400AF024B1B681846BD4680BC7047CD
:1030FC000000002080B500AFFFF7F2FF0246054B41
:10310C005B681B0A03F007030349CB5C22FA03F349
:10311C00184680BD001002408C54000880B500AFEA
:10312C00FFF7DEFF0246054B5B68DB0A03F0070383
:10313C000349CB5C22FA03F3184680BD0010024011
:10314C008C54000880B485B000AF78600A4B1B68C3
:10315C000A4AA2FB03235B0A7A6802FB03F3FB60B7
:10316C0000BFFB685A1EFA60002BF9D100BF00BFEC
:10317C001437BD4680BC704700000020D34D621050
:10318C0080B582B000AF78607B68002B01D1012341
:10319C0041E07B6893F83D30DBB2002B06D17B68B5
:1031AC00002283F83C207868FEF760F97B680222E5
:1031BC0083F83D207B681A687B68043319461046F7
:1031CC0000F00AFE7B68012283F846207B6801220E
:1031DC0083F83E207B68012283F83F207B68012224
:1031EC0083F840207B68012283F841207B68012210
:1031FC0083F842207B68012283F843207B680122FC
:10320C0083F844207B68012283F845207B680122E7
:10321C0083F83D20002318460837BD4680BD80B595
:10322C0082B000AF78607B68002B01D1012341E0B4
:10323C007B6893F83D30DBB2002B06D17B68002213
:10324C0083F83C20786800F039F87B68022283F818
:10325C003D207B681A687B6804331946104600F0E1
:10326C00BBFD7B68012283F846207B68012283F832
:10327C003E207B68012283F83F207B68012283F883
:10328C0040207B68012283F841207B68012283F86F
:10329C0042207B68012283F843207B68012283F85B
:1032AC0044207B68012283F845207B68012283F847
:1032BC003D20002318460837BD4680BD80B483B03E
:1032CC0000AF786000BF0C37BD4680BC7047000073
:1032DC0080B584B000AF786039603B68002B09D1B1
:1032EC007B6893F83E30DBB2012B14BF0123002323
:1032FC00DBB222E03B68042B09D17B6893F83F30AA
:10330C00DBB2012B14BF01230023DBB215E03B68B9
:10331C00082B09D17B6893F84030DBB2012B14BF2A
:10332C0001230023DBB208E07B6893F84130DBB269
:10333C00012B14BF01230023DBB2002B01D001238E
:10334C005EE03B68002B04D17B68022283F83E20B0
:10335C0013E03B68042B04D17B68022283F83F20E6
:10336C000BE03B68082B04D17B68022283F84020D9
:10337C0003E07B68022283F841207B681B680122F2
:10338C003968184601F0C1F87B681B681E4A9342E5
:10339C0007D17B681B685A6C7B681B6842F400423F
:1033AC005A647B681B68184A93420ED07B681B6872
:1033BC00B3F1804F09D07B681B68144A934204D048
:1033CC007B681B68124A934211D17B681B689B680F
:1033DC0003F00703FB60FB68062B10D07B681B68AF
:1033EC001A687B681B6842F001021A6007E07B6870
:1033FC001B681A687B681B6842F001021A60002384
:10340C0018461037BD4680BD002C0140000400401A
:10341C000008004080B582B000AF78607B68002B5C
:10342C0001D1012341E07B6893F83D30DBB2002BE6
:10343C0006D17B68002283F83C20786800F039F8CC
:10344C007B68022283F83D207B681A687B68043312
:10345C001946104600F0C0FC7B68012283F8462018
:10346C007B68012283F83E207B68012283F83F2091
:10347C007B68012283F840207B68012283F841207D
:10348C007B68012283F842207B68012283F8432069
:10349C007B68012283F844207B68012283F8452055
:1034AC007B68012283F83D20002318460837BD466F
:1034BC0080BD80B483B000AF786000BF0C37BD46D0
:1034CC0080BC704780B584B000AF78603960002351
:1034DC00FB733B68002B04D17B6893F83E30DBB266
:1034EC0013E03B68042B04D17B6893F83F30DBB2CC
:1034FC000BE03B68082B04D17B6893F84030DBB2BF
:10350C0003E07B6893F84130DBB2BB733B68002B64
:10351C0004D17B6893F84230DBB213E03B68042B98
:10352C0004D17B6893F84330DBB20BE03B68082B8B
:10353C0004D17B6893F84430DBB203E07B6893F8EA
:10354C004530DBB27B73BB7B012B02D17B7B012B28
:10355C0001D00123B8E03B68002B04D17B68022228
:10356C0083F83E2013E03B68042B04D17B680222D5
:10357C0083F83F200BE03B68082B04D17B680222C8
:10358C0083F8402003E07B68022283F841203B68EB
:10359C00002B04D17B68022283F8422013E03B68A5
:1035AC00042B04D17B68022283F843200BE03B6898
:1035BC00082B04D17B68022283F8442003E07B684B
:1035CC00022283F845203B680C2B41D801A252F80B
:1035DC0023F000BF153600085D3600085D36000884
:1035EC005D360008273600085D3600085D36000899
:1035FC005D360008393600085D3600085D36000877
:10360C005D3600084B3600087B681B68DA687B68FF
:10361C001B6842F00202DA601DE07B681B68DA6806
:10362C007B681B6842F00402DA6014E07B681B685C
:10363C00DA687B681B6842F00802DA600BE07B6892
:10364C001B68DA687B681B6842F01002DA6002E0E3
:10365C000123FB7300BFFB7B002B34D17B681B6801
:10366C0001223968184600F050FF7B681B68184A25
:10367C0093420ED07B681B68B3F1804F09D07B68F6
:10368C001B68144A934204D07B681B68124A93420D
:10369C0011D17B681B689B6803F00703BB60BB6898
:1036AC00062B10D07B681B681A687B681B6842F07D
:1036BC0001021A6007E07B681B681A687B681B684C
:1036CC0042F001021A60FB7B18461037BD4680BDE4
:1036DC00002C0140000400400008004080B584B07C
:1036EC0000AF78607B681B68DB68FB607B681B68DD
:1036FC001B69BB60BB6803F00203002B20D0FB6886
:10370C0003F00203002B1BD07B681B686FF00202D6
:10371C001A617B6801221A777B681B689B6903F02E
:10372C000303002B03D07868FDF78AF905E078686D
:10373C0000F037FB786800F03DFB7B6800221A77BD
:10374C00BB6803F00403002B20D0FB6803F00403D8
:10375C00002B1BD07B681B686FF004021A617B681E
:10376C0002221A777B681B689B6903F44073002B59
:10377C0003D07868FDF764F905E0786800F011FB78
:10378C00786800F017FB7B6800221A77BB6803F09F
:10379C000803002B20D0FB6803F00803002B1BD080
:1037AC007B681B686FF008021A617B6804221A7729
:1037BC007B681B68DB6903F00303002B03D078687C
:1037CC00FDF73EF905E0786800F0EBFA786800F058
:1037DC00F1FA7B6800221A77BB6803F01003002B08
:1037EC0020D0FB6803F01003002B1BD07B681B68F8
:1037FC006FF010021A617B6808221A777B681B68CD
:10380C00DB6903F44073002B03D07868FDF718F9DB
:10381C0005E0786800F0C5FA786800F0CBFA7B68B0
:10382C0000221A77BB6803F00103002B0CD0FB6855
:10383C0003F00103002B07D07B681B686FF00102BB
:10384C001A61786800F0A4FABB6803F08003002BBF
:10385C000CD0FB6803F08003002B07D07B681B683F
:10386C006FF080021A61786800F0DBFEBB6803F031
:10387C004003002B0CD0FB6803F04003002B07D057
:10388C007B681B686FF040021A61786800F09BFA45
:10389C00BB6803F02003002B0CD0FB6803F0200363
:1038AC00002B07D07B681B686FF020021A617868C8
:1038BC0000F0AEFE00BF1037BD4680BD80B586B0AF
:1038CC0000AFF860B9607A600023FB75FB6893F871
:1038DC003C30012B01D1022388E0FB68012283F8E4
:1038EC003C207B68002B1BD1FB681868BB681968EF
:1038FC00BB685A68BB68DB6800F064FCFB681B683B
:10390C009A69FB681B6822F00C029A61FB681B68C1
:10391C009969BB689A68FB681B680A439A6160E006
:10392C007B68042B1CD1FB681868BB681968BB68E2
:10393C005A68BB68DB6800F0CDFCFB681B689A69B1
:10394C00FB681B6822F440629A61FB681B689969EA
:10395C00BB689B681A02FB681B680A439A6140E0CB
:10396C007B68082B1BD1FB681868BB681968BB689F
:10397C005A68BB68DB6800F018FDFB681B68DA69E5
:10398C00FB681B6822F00C02DA61FB681B68D969C2
:10399C00BB689A68FB681B680A43DA6121E07B68A4
:1039AC000C2B1CD1FB681868BB681968BB685A687B
:1039BC00BB68DB6800F034FDFB681B68DA69FB68E8
:1039CC001B6822F44062DA61FB681B68D969BB682A
:1039DC009B681A02FB681B680A43DA6101E0012349
:1039EC00FB75FB68002283F83C20FB7D18461837DA
:1039FC00BD4680BD80B586B000AFF860B9607A6016
:103A0C000023FB75FB6893F83C30012B01D102239A
:103A1C00AEE0FB68012283F83C207B680C2B00F2A3
:103A2C009F8001A252F823F0693A00086D3B000810
:103A3C006D3B00086D3B0008A93A00086D3B00087F
:103A4C006D3B00086D3B0008EB3A00086D3B00082D
:103A5C006D3B00086D3B00082B3B0008FB681B68A6
:103A6C00B968184600F026FAFB681B689A69FB686F
:103A7C001B6842F008029A61FB681B689A69FB6834
:103A8C001B6822F004029A61FB681B689969BB6889
:103A9C001A69FB681B680A439A6164E0FB681B683F
:103AAC00B968184600F06CFAFB681B689A69FB68E9
:103ABC001B6842F400629A61FB681B689A69FB6898
:103ACC001B6822F480629A61FB681B689969BB6869
:103ADC001B691A02FB681B680A439A6143E0FB6886
:103AEC001B68B968184600F0B5FAFB681B68DA6900
:103AFC00FB681B6842F00802DA61FB681B68DA6934
:103B0C00FB681B6822F00402DA61FB681B68D96948
:103B1C00BB681A69FB681B680A43DA6123E0FB681F
:103B2C001B68B968184600F0FFFAFB681B68DA6975
:103B3C00FB681B6842F40062DA61FB681B68DA6997
:103B4C00FB681B6822F48062DA61FB681B68D96928
:103B5C00BB681B691A02FB681B680A43DA6102E046
:103B6C000123FB7500BFFB68002283F83C20FB7D22
:103B7C0018461837BD4680BD80B584B000AF78605C
:103B8C0039600023FB737B6893F83C30012B01D127
:103B9C000223B4E07B68012283F83C207B6802227C
:103BAC0083F83D207B681B689B68BB60BB6823F077
:103BBC007703BB60BB6823F47F43BB607B681B68E7
:103BCC00BA689A603B681B68B3F5005F3ED0B3F5EA
:103BDC00005F00F28780B3F5805F00F08680B3F55C
:103BEC00805F7FD8702B1AD0702B7BD8602B50D075
:103BFC00602B77D8502B3CD0502B73D8402B58D0FF
:103C0C00402B6FD8302B64D0302B6BD8202B60D04E
:103C1C00202B67D8002B5CD0102B5AD062E07B682D
:103C2C0018683B6899683B685A683B68DB6800F029
:103C3C004DFC7B681B689B68BB60BB6843F07703DB
:103C4C00BB607B681B68BA689A604FE07B68186839
:103C5C003B6899683B685A683B68DB6800F036FC47
:103C6C007B681B689A687B681B6842F480429A6088
:103C7C003CE07B6818683B6859683B68DB681A460F
:103C8C0000F0FAFA7B681B685021184600F004FC1F
:103C9C002CE07B6818683B6859683B68DB681A46FF
:103CAC0000F054FB7B681B686021184600F0F4FBA5
:103CBC001CE07B6818683B6859683B68DB681A46EF
:103CCC0000F0DAFA7B681B684021184600F0E4FB30
:103CDC000CE07B681A683B681B681946104600F0BC
:103CEC00DBFB03E00123FB7300E000BF7B680122D8
:103CFC0083F83D207B68002283F83C20FB7B184630
:103D0C001037BD4680BD000080B485B000AF786030
:103D1C0039600023FB603B680C2B31D801A252F8B0
:103D2C0023F000BF653D00088D3D00088D3D000867
:103D3C008D3D00086F3D00088D3D00088D3D00084D
:103D4C008D3D0008793D00088D3D00088D3D000833
:103D5C008D3D0008833D00087B681B685B6BFB6036
:103D6C000FE07B681B689B6BFB600AE07B681B6841
:103D7C00DB6BFB6005E07B681B681B6CFB6000E089
:103D8C0000BFFB6818461437BD4680BC704700BFA7
:103D9C0080B483B000AF786000BF0C37BD4680BCE8
:103DAC00704780B483B000AF786000BF0C37BD465D
:103DBC0080BC704780B483B000AF786000BF0C3714
:103DCC00BD4680BC704780B483B000AF786000BF44
:103DDC000C37BD4680BC704780B485B000AF7860AE
:103DEC0039607B681B68FB607B682F4A93420BD061
:103DFC007B68B3F1804F07D07B682C4A934203D089
:103E0C007B682B4A934208D1FB6823F07003FB605C
:103E1C003B685B68FA681343FB607B68224A9342F9
:103E2C000BD07B68B3F1804F07D07B681F4A93425D
:103E3C0003D07B681E4A934208D1FB6823F440737D
:103E4C00FB603B68DB68FA681343FB60FB6823F09C
:103E5C0080023B685B691343FB607B68FA681A60FD
:103E6C003B689A687B68DA623B681A687B689A627E
:103E7C007B680D4A934203D13B681A697B681A63CD
:103E8C007B6801225A617B681B6903F00103002BDC
:103E9C0005D07B681B6923F001027B681A6100BFA7
:103EAC001437BD4680BC7047002C01400004004014
:103EBC000008004080B487B000AF786039607B6840
:103ECC001B6A7B617B681B6A23F001027B681A62A8
:103EDC007B685B683B617B689B69FB60FB6823F0DC
:103EEC007003FB60FB6823F00303FB603B681B68FB
:103EFC00FA681343FB607B6923F002037B613B6828
:103F0C009B687A6913437B617B681C4A93420CD192
:103F1C007B6923F008037B613B68DB687A69134398
:103F2C007B617B6923F004037B617B68134A9342BA
:103F3C0011D13B6923F480733B613B6923F400731B
:103F4C003B613B685B693A6913433B613B689B6926
:103F5C003A6913433B617B683A695A607B68FA683B
:103F6C009A613B685A687B685A637B687A691A6203
:103F7C0000BF1C37BD4680BC704700BF002C014001
:103F8C0080B487B000AF786039607B681B6A7B6156
:103F9C007B681B6A23F010027B681A627B685B6883
:103FAC003B617B689B69FB60FB6823F4E043FB602F
:103FBC00FB6823F44073FB603B681B681B02FA68C8
:103FCC001343FB607B6923F020037B613B689B6898
:103FDC001B017A6913437B617B681D4A93420DD1A7
:103FEC007B6923F080037B613B68DB681B017A698A
:103FFC0013437B617B6923F040037B617B68144A2C
:10400C00934213D13B6923F480633B613B6923F4F6
:10401C0000633B613B685B699B003A6913433B61FE
:10402C003B689B699B003A6913433B617B683A6927
:10403C005A607B68FA689A613B685A687B689A6335
:10404C007B687A691A6200BF1C37BD4680BC70471A
:10405C00002C014080B487B000AF786039607B6879
:10406C001B6A7B617B681B6A23F480727B681A6213
:10407C007B685B683B617B68DB69FB60FB6823F0FA
:10408C007003FB60FB6823F00303FB603B681B6859
:10409C00FA681343FB607B6923F400737B613B6814
:1040AC009B681B027A6913437B617B681D4A9342B0
:1040BC000DD17B6923F400637B613B68DB681B02D9
:1040CC007A6913437B617B6923F480637B617B6832
:1040DC00144A934213D13B6923F480533B613B69EF
:1040EC0023F400533B613B685B691B013A69134342
:1040FC003B613B689B691B013A6913433B617B68DD
:10410C003A695A607B68FA68DA613B685A687B687E
:10411C00DA637B687A691A6200BF1C37BD4680BCC3
:10412C00704700BF002C014080B487B000AF7860AE
:10413C0039607B681B6A3B617B681B6A23F4805285
:10414C007B681A627B685B687B617B68DB69FB6000
:10415C00FB6823F4E043FB60FB6823F44073FB60D3
:10416C003B681B681B02FA681343FB603B6923F432
:10417C0000533B613B689B681B033A6913433B61EB
:10418C007B680F4A934209D17B6923F480437B619E
:10419C003B685B699B017A6913437B617B687A6935
:1041AC005A607B68FA68DA613B685A687B681A6403
:1041BC007B683A691A6200BF1C37BD4680BC7047E9
:1041CC00002C014080B487B000AFF860B9607A6011
:1041DC003B60FB681B6A3B61FB681B6A23F00102B6
:1041EC00FB681A62FB689B697B61FB681F4A934200
:1041FC000BD0FB68B3F1804F07D0FB681C4A93428D
:10420C0003D0FB681B4A934201D1012300E0002339
:10421C00002B08D07B6923F003037B617A697B68F0
:10422C0013437B6103E07B6943F001037B617B6992
:10423C0023F0F0037B613B681B01DBB27A6913430B
:10424C007B613B6923F00A033B61BB6803F00A0303
:10425C003A6913433B61FB687A699A61FB683A6976
:10426C001A6200BF1C37BD4680BC7047002C014051
:10427C00000400400008004080B487B000AFF86034
:10428C00B9607A60FB681B6A7B61FB681B6A23F070
:10429C000102FB681A62FB689B693B613B6923F076
:1042AC00F0033B617B681B013A6913433B617B69FB
:1042BC0023F00A037B617A69BB6813437B61FB685B
:1042CC003A699A61FB687A691A6200BF1C37BD466D
:1042DC0080BC704780B487B000AFF860B9607A607A
:1042EC003B60FB681B6A7B61FB681B6A23F0100256
:1042FC00FB681A62FB689B693B613B6923F4407362
:10430C003B617B681B023A6913433B613B6923F4B5
:10431C0070433B613B681B039BB23A6913433B619F
:10432C007B6923F0A0037B61BB681B0103F0A00336
:10433C007A6913437B61FB683A699A61FB687A6915
:10434C001A6200BF1C37BD4680BC704780B487B072
:10435C0000AFF860B9607A60FB681B6A7B61FB6830
:10436C001B6A23F01002FB681A62FB689B693B61B5
:10437C003B6923F470433B617B681B033A6913432D
:10438C003B617B6923F0A0037B61BB681B017A69ED
:10439C0013437B61FB683A699A61FB687A691A621C
:1043AC0000BF1C37BD4680BC704780B487B000AFDF
:1043BC00F860B9607A603B60FB681B6A7B61FB68E4
:1043CC001B6A23F48072FB681A62FB68DB693B6131
:1043DC003B6923F003033B613A697B6813433B6100
:1043EC003B6923F0F0033B613B681B01DBB23A698C
:1043FC0013433B617B6923F400737B61BB681B0235
:10440C0003F400737A6913437B61FB683A69DA61E0
:10441C00FB687A691A6200BF1C37BD4680BC7047C6
:10442C0080B487B000AFF860B9607A603B60FB681D
:10443C001B6A7B61FB681B6A23F48052FB681A625F
:10444C00FB68DB693B613B6923F440733B617B6830
:10445C001B023A6913433B613B6923F470433B6194
:10446C003B681B039BB23A6913433B617B6923F4A2
:10447C0000537B61BB681B0303F400537A6913433D
:10448C007B61FB683A69DA61FB687A691A6200BF82
:10449C001C37BD4680BC704780B485B000AF7860D7
:1044AC0039607B689B68FB60FB6823F07003FB60E2
:1044BC003A68FB68134343F00703FB607B68FA68B8
:1044CC009A6000BF1437BD4680BC704780B487B07B
:1044DC0000AFF860B9607A603B60FB689B687B61F9
:1044EC007B6923F47F437B613B681A027B681A4328
:1044FC00BB6813437A6913437B61FB687A699A60E2
:10450C0000BF1C37BD4680BC704780B487B000AF7D
:10451C00F860B9607A60BB6803F01F03012202FAED
:10452C0003F37B61FB681A6A7B69DB431A40FB6807
:10453C001A62FB681A6ABB6803F01F03796801FAF8
:10454C0003F31A43FB681A6200BF1C37BD4680BCDC
:10455C007047000080B485B000AF786039607B682C
:10456C0093F83C30012B01D1022346E07B680122F9
:10457C0083F83C207B68022283F83D207B681B6813
:10458C005B68FB607B681B689B68BB60FB6823F007
:10459C007003FB603B681B68FA681343FB607B6825
:1045AC001B68FA685A607B681B68164A93420ED0E7
:1045BC007B681B68B3F1804F09D07B681B68124A7B
:1045CC00934204D07B681B68104A93420CD1BB68A1
:1045DC0023F08003BB603B685B68BA681343BB6025
:1045EC007B681B68BA689A607B68012283F83D205F
:1045FC007B68002283F83C20002318461437BD4604
:10460C0080BC7047002C01400004004000080040B2
:10461C0080B483B000AF786000BF0C37BD4680BC5F
:10462C00704780B483B000AF786000BF0C37BD46D4
:10463C0080BC704780B582B000AF78607B68002B7F
:10464C0001D1012342E07B6893F84130DBB2002BAF
:10465C0006D17B68002283F840207868FCF78EFF37
:10466C007B68242283F841207B681B68DA687B68AE
:10467C001B6822F40052DA60786800F071F97B68EC
:10468C001B681A697B681B6822F490421A617B686C
:10469C001B685A697B681B6822F02A025A617B6886
:1046AC001B68DA687B681B6842F40052DA607B682E
:1046BC0000225A647B68202283F841207B682022E8
:1046CC0083F842207B6800225A630023184608377F
:1046DC00BD4680BD80B58AB002AFF860B9603B6062
:1046EC001346FB8000237B61FB6893F84130DBB2FF
:1046FC00202B75D1BB68002B02D0FB88002B01D17D
:10470C0001236EE0FB6800225A64FB68212283F8C7
:10471C004120FDF779F87861FB68FA889A84FB6888
:10472C00FA88DA84FB689B68B3F5805F08D1FB6874
:10473C001B69002B04D10023FB61BB68BB6103E048
:10474C00BB68FB610023BB612EE03B6800937B6977
:10475C0000228021F86800F048F80346002B05D0B1
:10476C00FB68202283F8412003233AE0FB69002BED
:10477C000BD1BB691B881A46FB681B68C2F3080285
:10478C005A60BB690233BB6107E0FB691A78FB68AE
:10479C001B685A60FB690133FB61FB68DB8C9BB2C5
:1047AC00013B9AB2FB68DA84FB68DB8C9BB2002B72
:1047BC00CBD13B6800937B6900224021F86800F064
:1047CC0014F80346002B05D0FB68202283F8412007
:1047DC00032306E0FB68202283F84120002300E03D
:1047EC00022318462037BD4680BD80B586B000AF89
:1047FC00F860B9603B601346FB713BE03B6AB3F178
:10480C00FF3F37D0FDF700F802463B68D31A3A6AEF
:10481C009A4202D33B6A002B01D103233AE0FB6896
:10482C001B68DB6803F00403002B23D0BB68802BD0
:10483C0020D0BB68402B1DD0FB681B681B6803F0A5
:10484C000803082B16D100237B61FB681B681B68CF
:10485C007B61FB681B685B687B617B69F86800F0B7
:10486C001DF8FB6808225A64FB68002283F840207C
:10487C0001230FE0FB681B681A68BB681340BA6819
:10488C009A420CBF01230023DBB21A46FB799A42F1
:10489C00B4D0002318461837BD4680BD80B495B0FF
:1048AC0000AF78607B681B680C337B637B6B53E8D1
:1048BC00003F3B633B6B23F49073FB647B681B688A
:1048CC000C33FA6C3A64FB63F96B3A6C41E80023E5
:1048DC00BB63BB6B002BE5D17B681B6814333B625D
:1048EC003B6A53E8003FFB61FB6923F00103BB64A7
:1048FC007B681B681433BA6CFA62BB62B96AFA6AD9
:10490C0041E800237B627B6A002BE5D17B681B6B43
:10491C00012B19D17B681B680C33FB60FB6853E8D7
:10492C00003FBB60BB6823F010037B647B681B6893
:10493C000C337A6CBA617B617969BA6941E80023FE
:10494C003B613B69002BE5D17B68202283F8422038
:10495C007B6800221A6300BF5437BD4680BC704789
:10496C0080B584B000AF78607B681B681B6923F44A
:10497C0040517B68DA687B681B680A431A617B6864
:10498C009A687B681B691A437B685B691343BB603D
:10499C007B681B68DB6823F4B05323F00C037A6844
:1049AC001268B9680B43D3607B681B685B6923F49E
:1049BC0040717B689A697B681B680A435A617B6803
:1049CC001B682C4A934203D1FEF7A8FBF86002E067
:1049DC00FEF790FBF860FA6813469B0013449A00AC
:1049EC001A447B685B689B00B2FBF3F3224AA2FB80
:1049FC0003235B091901FA6813469B0013449A00C0
:104A0C001A447B685B689B00B2FBF3F21A4BA3FB66
:104A1C0002035B09642000FB03F3D31A1B0132333E
:104A2C00154AA2FB03235B0903F0F0031944FA684F
:104A3C0013469B0013449A001A447B685B689B00E6
:104A4C00B2FBF3F20C4BA3FB02035B09642000FBEB
:104A5C0003F3D31A1B013233074AA2FB03235B096E
:104A6C0003F00F027B681B680A449A6000BF103782
:104A7C00BD4680BD003801401F85EB510EB46FF070
:104A8C00004110B500249DB01FAB02900690079119
:104A9C0004910948094953F8042B0591006802A9AF
:104AAC0001931B9400F092F9029B1C701DB0BDE8A1
:104ABC00104003B0704700BF0C0000200802FFFF3D
:104ACC0003460244934200D1704703F8011BF9E7F7
:104ADC00014B1868704700BF0C00002070B5002611
:104AEC000C4D0D4C641BA410A64209D100F076FCB1
:104AFC0000260A4D0A4C641BA410A64205D170BDB9
:104B0C0055F8043B98470136EEE755F8043B9847B7
:104B1C000136F2E7E4540008E4540008E4540008B9
:104B2C00E85400087047704738B50546002940D056
:104B3C0051F8043C0C1F002BB8BFE41800F0DEF851
:104B4C001C4A136833B9636014602846BDE83840CA
:104B5C0000F0DAB8A34208D9206821188B4201BFB3
:104B6C0019685B6809182160EDE71A465B680BB1A0
:104B7C00A342FAD911685018A0420BD12068014405
:104B8C00501883421160E0D118685B6808441060CB
:104B9C005360DAE702D90C232B60D6E72068211882
:104BAC008B4201BF19685B6809182160636054600F
:104BBC00CBE738BD3403002070B50F4E0C4631687E
:104BCC00054611B900F0A8FB30602146284600F0DC
:104BDC00A3FB431C03D14FF0FF34204670BDC41C13
:104BEC0024F00304A042F8D0211A284600F094FBCC
:104BFC000130F2D1EFE700BF300300202DE9F8437C
:104C0C00CD1C25F0030508350C2D38BF0C25002DC7
:104C1C00064601DBA94204D90C2333600020BDE811
:104C2C00F883DFF8D48000F069F8D8F800301C461F
:104C3C0044BB29463046FFF7BFFF431C044658D1FE
:104C4C00D8F800402746002F43D1002C4BD02368C6
:104C5C003946304604EB030900F05EFB814542D136
:104C6C00216830466D1A2946FFF7A6FF01303AD06D
:104C7C0023682B442360D8F800305A6862BBC8F80C
:104C8C0000700FE02268521B20D40B2A17D961192F
:104C9C00A342256018BF5960636808BFC8F80010AC
:104CAC0062514B60304600F02FF804F10B00231DCD
:104CBC0020F00700C21A1CBF1B1AA350AFE7626892
:104CCC00A3420CBFC8F800205A60EBE72346646887
:104CDC00AEE73C467F68B6E71A465B68A342FBD159
:104CEC0000235360DEE70C233046336000F00CF8F1
:104CFC0094E70560D6E700BF340300200148FFF7B6
:104D0C0011BF00BF2C0300200148FFF70CBF00BFF0
:104D1C002C0300202DE9F0471F468E688246BE42C8
:104D2C000C4690460B682DD8B1F90C2012F4906FFC
:104D3C0026D06569096905EB4505A3EB010905EB6F
:104D4C00D5757B1C4B446D109D4238BF1D465305D9
:104D5C0027D52946FFF752FF064660B34A4621691C
:104D6C0000F0F8FAA38923F4906343F08003A38145
:104D7C0026614E4426603E466561A5EB0905A5609B
:104D8C00BE4200D93E4632464146206800F0AAFA9F
:104D9C000020A3689B1BA360236833442360BDE8F9
:104DAC00F0872A4600F0E4FA06460028E0D1504687
:104DBC002169FFF7B9FE0C23CAF80030A3894FF024
:104DCC00FF3043F04003A381E9E700002DE9F04FE9
:104DDC0098468B8907461B060D4614469DB010D588
:104DEC000B6973B94021FFF709FF2860286130B9BE
:104DFC000C233B604FF0FF301DB0BDE8F08F40231B
:104E0C006B610023099320238DF8293030234FF058
:104E1C000109CDF80C80DFF898818DF82A302346F3
:104E2C009A4613F8012B0AB1252AF9D1BAEB040BD7
:104E3C000BD05B46224629463846FFF76BFF013004
:104E4C0000F0A780099A5A4409929AF80030002B76
:104E5C0000F09F8000234FF0FF32CDE905230AF1CB
:104E6C00010A049307938DF853301A935446052284
:104E7C0014F8011B4E4800F05FFA049AD8B9D0061A
:104E8C0044BF20238DF85330110744BF2B238DF8DA
:104E9C0053309AF800302A2B15D0544600204FF08E
:104EAC000A0C079A214611F8013B303B092B4BD9D0
:104EBC00B0B1079214E0A0EB080309FA03F3134313
:104ECC00A2460493D2E7039B191D1B680391002B88
:104EDC00BBBF5B4242F0020207930793B8BF049238
:104EEC0023782E2B0AD163782A2B32D1039B0234E0
:104EFC001A1D1B68039243EAE3730593DFF8B4A011
:104F0C0003225046217800F017FA38B14022049B56
:104F1C00A0EB0A00824013430134049314F8011BE4
:104F2C00062225488DF8281000F006FA002836D005
:104F3C00224B1BBB039B073323F00703083303935C
:104F4C00099B334409936AE70C4601200CFB02329F
:104F5C00A8E700234FF00A0C1946013405932046AC
:104F6C0010F8012B303A092A03D9002BC6D0059131
:104F7C00C4E7044601230CFB0121F0E703AB0093CB
:104F8C002A4638460E4B04A9AFF30080421C064655
:104F9C00D6D1AB895B063FF52DAF09982CE703AB57
:104FAC0000932A463846064B04A900F07DF8EDE73D
:104FBC00A6540008AC540008B054000800000000CF
:104FCC00214D00082DE9F047164698468A680B6972
:104FDC0007469342B8BF1346336091F843200C4602
:104FEC00DDF820900AB1013333602368990642BF83
:104FFC00336802333360256815F0060506D104F1D9
:10500C00190AE36832689B1AAB422BDC94F84330E4
:10501C002268003B18BF0123920630D44146384623
:10502C0004F14302C847013023D02368226903F0FE
:10503C000603042B14BF002533684FF0000608BF8D
:10504C00E56804F11A0408BFED1A54F8123C08BFC5
:10505C0025EAE5759342C4BF9B1AED18B5421AD1E7
:10506C00002008E00123524641463846C84701302B
:10507C0003D14FF0FF30BDE8F0870135C1E7302098
:10508C00E11881F843005A1C94F84510224402336D
:10509C0082F84310C2E70123224641463846C847EE
:1050AC000130E6D00136D9E72DE9FF470F7E914656
:1050BC00782F80460C469A460C9E01F1430207D885
:1050CC00622F0AD8002F00F0D180582F00F0B88042
:1050DC0004F1420684F842703AE0A7F16303152B01
:1050EC00F6D801A151F823F04D5100086151000888
:1050FC00DD500008DD500008DD500008DD500008D0
:10510C0061510008DD500008DD500008DD5000083A
:10511C00DD5000085F5200088B510008195200083E
:10512C00DD500008DD50000881520008DD500008F9
:10513C008B510008DD500008DD500008215200089A
:10514C0033681A1D1B68326004F1420684F8423041
:10515C0001239CE033682068191D3160060601D5D7
:10516C001D6803E04506FBD5B3F90050002D03DAAA
:10517C002D236D4284F843300A23584811E02168EE
:10518C003368080653F8045B02D4490648BFADB235
:10519C006F2F336014BF0A2308235048002184F872
:1051AC0043106668002EA66005DB21682E4321F0B3
:1051BC00040121604BD01646B5FBF3F103FB1157EC
:1051CC00C75D06F8017D2F46BB420D46F4D9082B6E
:1051DC000BD12368DF0708D5236961689942DEBFCC
:1051EC00302306F8013C06F1FF36921B22614B4638
:1051FC0021464046CDF800A003AAFFF7E3FE01309C
:10520C004AD14FF0FF3004B0BDE8F087236843F07B
:10521C00200323607827324884F84570236831686E
:10522C001F0651F8045B02D45F0648BFADB2316073
:10523C00D90744BF43F0200323601DB11023ADE711
:10524C002648E9E7236823F020032360F6E7164697
:10525C00BDE733682568181D616930602E061B6830
:10526C0001D5196002E06806FBD5198000231646AB
:10527C002361BCE7336800211A1D32601E68626826
:10528C00304600F059F808B1801B606063682361F8
:10529C00002384F84330AAE7324649464046236946
:1052AC00D0470130ADD023689B0713D4E068039B33
:1052BC009842B8BF1846A6E70123324649464046F5
:1052CC00D04701309DD00135E36803995B1AAB429E
:1052DC00F2DCEBE7002504F11906F5E7B7540008FA
:1052EC00C8540008884210B501EB020402D984426C
:1052FC00234607D8431EA14208D011F8012B03F80E
:10530C00012FF8E7014602448A4200D110BD13F880
:10531C00014D02F8014DF7E738B50023054D044661
:10532C0008462B60FCF7B6F9431C02D12B6803B17D
:10533C00236038BD28030020034610B5C9B20244CF
:10534C009342184601D1002003E0047801338C42CB
:10535C00F6D110BD0A44914200F1FF3300D17047E1
:10536C0010B511F8014B914203F8014FF9D110BD62
:10537C002DE9F041074614460D4621B91146BDE80A
:10538C00F041FFF73BBC2AB9FFF7CEFB2546284678
:10539C00BDE8F08100F01AF88442064602D8B4EB5E
:1053AC00500FF4D821463846FFF728FC804608B940
:1053BC004546ECE7B4422246294628BF3246FFF761
:1053CC00C9FF29463846FFF7AFFBF1E751F8043C1B
:1053DC00181F002BBCBF0B58C0187047F8B500BF86
:1053EC00F8BC08BC9E467047F8B500BFF8BC08BCBA
:0453FC009E46704712
:1054000053756D6F426F74202D2053656E736F72EC
:105410006573204F4B0D0A00424F524445212045F1
:1054200076616469656E646F0D0A00004652454EF0
:105430004F2120446973743D252E3066206D6D0D1B
:105440000A00000041544143414E444F2120446929
:1054500073743D252E3066206D6D0D0A000000002E
:1054600042555343414E444F2E2E2E2044697374AF
:105470003D252E3066206D6D0D0A000000000000F5
:1054800000000000010203040607080900000000F4
:105490000102030402030405060708090A0B0C0DA8
:1054A0000E0F10100102232D302B2000686C4C00D1
:1054B0006566674546470030313233343536373814
:1054C0003941424344454600303132333435363772
:0C54D0003839616263646566000000000A
:0854DC0070ACFF7F010000002D
:0454E400310100088A
:0454E8000D010008AA
:1054EC0000127A00100000000100000010000020E3
:1054FC0000000000F001002058020020C002002033
:10550C00000000000000000000000000000000008F
:10551C00000000000000000000000000000000007F
:10552C00000000000000000000000000000000006F
:0C553C0000000000000000000000000063
:0400000508001719BF
:00000001FF
