:020000040800F2
:1000000000500020490A0008D1090008D909000859
:10001000E1090008E9090008F109000800000000F2
:10002000000000000000000000000000F9090008C6
:10003000050A000800000000110A00081D0A000857
:10004000910A0008910A0008910A0008910A000824
:10005000910A0008910A0008910A0008910A000814
:10006000910A0008910A0008910A0008910A000804
:10007000910A0008910A0008910A0008910A0008F4
:10008000910A0008910A0008910A0008910A0008E4
:10009000910A0008910A0008910A0008910A0008D4
:1000A000910A0008910A0008910A0008910A0008C4
:1000B000290A0008910A0008910A0008910A00081C
:1000C000910A0008910A0008910A0008910A0008A4
:1000D000910A0008910A0008910A0008910A000894
:1000E000910A0008910A0008910A00080000000027
:1000F0000000000000000000000000000000000000
:0C01000000000000000000005FF808F1A3
:10010C0010B5054C237833B9044B13B10448AFF345
:10011C0000800123237010BD0C00002000000000A3
:10012C00042D000808B5034B1BB103490348AFF37A
:10013C00008008BD0000000010000020042D000805
:10014C00034613F8012B002AFBD1181A013870470B
:10015C0080B582B000AF03460A46FB801346BB80D5
:10016C00B7F90630B3F57A7F02DB40F2E733FB8058
:10017C00B7F9063013F57A7F02DC4FF61943FB8092
:10018C00B7F90430B3F57A7F02DB40F2E733BB807A
:10019C00B7F9043013F57A7F02DC4FF61943BB80B4
:1001AC00B7F90630002B11DB01224FF480512648A1
:1001BC0000F082FF00224FF40051234800F07CFF36
:1001CC00224B1B68B7F906205A6311E000224FF44A
:1001DC0080511D4800F070FF01224FF400511A4865
:1001EC0000F06AFFB7F906305A42184B1B685A6385
:1001FC00B7F90430002B11DB01224FF48071124847
:10020C0000F05AFF00224FF400710F4800F054FF29
:10021C000E4B1B68B7F904209A6311E000224FF4CF
:10022C008071094800F048FF01224FF40071064824
:10023C0000F042FFB7F904305A42044B1B689A6332
:10024C0000BF0837BD4680BD000C014028000020CF
:10025C0080B582B000AF00237B6014E000224FF425
:10026C0000513C4800F028FF642000F06FFC012294
:10027C004FF40051374800F01FFF642000F066FC7B
:10028C007B6801337B607B68042BE7DD40F25231E5
:10029C0040F25230FFF75CFF40F2DC5000F056FCAD
:1002AC0000210020FFF754FF4FF4FA7000F04EFCD1
:1002BC0029492948FFF74CFF40F2DC5000F046FC7E
:1002CC0000210020FFF744FF4FF4FA7000F03EFCD1
:1002DC004FF448712148FFF73BFF4FF4966000F054
:1002EC0035FC00210020FFF733FF4FF4FA7000F0CB
:1002FC002DFC1A494FF44870FFF72AFF4FF4966013
:10030C0000F024FC00210020FFF722FF4FF4FA70CC
:10031C0000F01CFC00233B6014E000224FF4005161
:10032C000C4800F0C9FEC82000F010FC01224FF46C
:10033C000051084800F0C0FEC82000F007FC3B68E4
:10034C0001333B603B68022BE7DD00BF00BF083781
:10035C00BD4680BD00100140AEFCFFFFE0FCFFFF7E
:10036C0080B584B000AF0346FB71FB790D2B79D0BF
:10037C00FB790A2B76D0FB79602B05D9FB797A2B8C
:10038C0002D8FB79203BFB71FB793B730D237B730C
:10039C000A23BB7307F10C0164230322334802F0D8
:1003AC0013FAFB79413B162B48D801A252F823F0E3
:1003BC003104000849040008490400083D04000801
:1003CC0049040008490400084904000849040008CD
:1003DC0049040008490400084904000849040008BD
:1003EC0049040008490400084904000849040008AD
:1003FC0049040008490400082704000849040008BF
:10040C0049040008490400081904000840F252315C
:10041C0040F25230FFF79CFE15E015491448FFF7E7
:10042C0097FE10E04FF448711248FFF791FE0AE076
:10043C0010494FF44870FFF78BFE04E000210020B8
:10044C00FFF786FE00BF00224FF400510A4800F06F
:10045C0033FE0A4B01221A7000F06EFB0346084A69
:10046C00136000E000BF1037BD4680BD7000002057
:10047C00AEFCFFFFE0FCFFFF00100140B8000020C5
:10048C00BC000020B0B58AB000AF00F0FDFA00F05F
:10049C0069F800F057F900F0ABF800F029F90021E9
:1004AC00294801F0D9FA0421274801F0D5FA012294
:1004BC004FF40041254800F0FFFD00210020FFF71C
:1004CC0047FE01224FF40051214800F0F5FD214B6D
:1004DC0007F108041D460FCD0FC495E80F0007C4A3
:1004EC00237007F108031846FFF72AFE03469AB259
:1004FC0007F108016423184802F066F9FFF7A8FE1B
:10050C00F91D64230122144802F0E9F90346002B7B
:10051C0003D1FB791846FFF723FF104B1B78DBB296
:10052C00002BEDD000F008FB02460D4B1B68D31AD4
:10053C00632BE5D901224FF40051054800F0BCFDB6
:10054C00064B00221A70DBE728000020000C01404B
:10055C00001001401C2D000870000020B800002085
:10056C00BC00002080B590B000AF07F11803282222
:10057C000021184602F094FB3B1D00221A605A60C1
:10058C009A60DA601A610123BB614FF48033FB611E
:10059C0000233B620123BB6202237B634FF4803355
:1005AC00BB634FF4E013FB6307F11803184600F02C
:1005BC009BFD0346002B01D000F02CF90F237B6030
:1005CC000223BB600023FB604FF480633B6100237C
:1005DC007B613B1D0221184601F008F80346002BF5
:1005EC0001D000F017F900BF4037BD4680BD0000B8
:1005FC0080B58EB000AF07F1280300221A605A6054
:10060C009A60DA6007F1200300221A605A603B1DE1
:10061C0000221A605A609A60DA601A615A619A6113
:10062C00324B4FF080421A60304B47225A602F4BAE
:10063C0000229A602D4B40F2E732DA602B4B0022FD
:10064C001A612A4B00229A61284801F05DF9034691
:10065C00002B01D000F0DEF84FF48053BB6207F1A1
:10066C0028031946214801F04BFC0346002B01D00E
:10067C0000F0D0F81D4801F096F90346002B01D08C
:10068C0000F0C8F800233B6200237B6207F12003D3
:10069C001946164801F0D8FF0346002B01D000F094
:1006AC00B9F860237B600023BB600023FB60002350
:1006BC007B613B1D002219460C4801F05FFB034691
:1006CC00002B01D000F0A6F83B1D04221946074868
:1006DC0001F054FB0346002B01D000F09BF80348BB
:1006EC0000F0F4F800BF3837BD4680BD280000206C
:1006FC0080B500AF114B124A1A60104B4FF41652D2
:10070C005A600E4B00229A600C4B0022DA600B4BA5
:10071C0000221A61094B0C225A61084B00229A6183
:10072C00064B0022DA61054801F0FEFF0346002B60
:10073C0001D000F06FF800BF80BD00BF700000203A
:10074C000038014080B588B000AF07F110030022DB
:10075C001A605A609A60DA602B4B9B692A4A43F004
:10076C0010039361284B9B6903F01003FB60FB683B
:10077C00254B9B69244A43F020039361224B9B69D0
:10078C0003F02003BB60BB681F4B9B691E4A43F000
:10079C00040393611C4B9B6903F004037B607B682F
:1007AC00194B9B69184A43F008039361164B9B69DC
:1007BC0003F008033B603B6800224FF433411348BD
:1007CC0000F07AFC4FF433433B6101237B6100233F
:1007DC00BB610223FB6107F1100319460B4800F0C3
:1007EC00E7FA01224FF40051094800F065FC4FF480
:1007FC0000533B6107F110031946054800F0D8FA85
:10080C0000BF2037BD4680BD00100240000C0140E7
:10081C000010014080B400AF72B600BF00BFFDE70E
:10082C0080B485B000AF154B9B69144A43F00103AB
:10083C009361124B9B6903F00103BB60BB680F4BC8
:10084C00DB690E4A43F08053D3610C4BDB6903F038
:10085C0080537B607B680A4B5B68FB60FB6823F012
:10086C00E063FB60FB6843F00073FB60044AFB68C9
:10087C00536000BF1437BD4680BC70470010024067
:10088C000000014080B584B000AF78607B681B68C5
:10089C00B3F1804F13D10C4BDB690B4A43F00103CE
:1008AC00D361094BDB6903F00103FB60FB68002299
:1008BC0000211C2000F045FA1C2000F05EFA00BF5D
:1008CC001037BD4680BD00BF0010024080B588B017
:1008DC0000AF786007F1100300221A605A609A602A
:1008EC00DA607B681B68B3F1804F17D10D4B9B69A5
:1008FC000C4A43F0040393610A4B9B6903F0040315
:10090C00FB60FB6803233B6102237B610223FB61D9
:10091C0007F110031946044800F04AFA00BF2037CB
:10092C00BD4680BD001002400008014080B588B073
:10093C0000AF786007F1100300221A605A609A60C9
:10094C00DA607B681B681C4A934231D11B4B9B6954
:10095C001A4A43F480439361184B9B6903F4804318
:10096C00FB60FB68154B9B69144A43F004039361CD
:10097C00124B9B6903F00403BB60BB684FF400731C
:10098C003B6102237B610323FB6107F110031946D2
:10099C000B4800F00DFA4FF480633B6100237B6140
:1009AC000023BB6107F110031946054800F000FA5B
:1009BC0000BF2037BD4680BD00380140001002400A
:1009CC000008014080B400AF00BFFDE780B400AF69
:1009DC0000BFFDE780B400AF00BFFDE780B400AFFF
:1009EC0000BFFDE780B400AF00BFFDE780B400AFEF
:1009FC0000BFBD4680BC704780B400AF00BFBD4691
:100A0C0080BC704780B400AF00BFBD4680BC70474F
:100A1C0080B500AF00F07EF800BF80BD80B500AFA0
:100A2C00024801F0BBF800BF80BD00BF28000020C9
:100A3C0080B400AF00BFBD4680BC7047FFF7F8FF25
:100A4C000B480C490C4A002302E0D458C450043320
:100A5C00C4188C42F9D3094A094C002301E01360F5
:100A6C000432A242FBD302F023F9FFF70BFD7047CF
:100A7C00000000200C000020782D00080C00002045
:100A8C00C4000020FEE7000080B500AF084B1B68D7
:100A9C00074A43F010031360032000F047F90F20BE
:100AAC0000F008F8FFF7BCFE0023184680BD00BF1D
:100ABC000020024080B582B000AF7860124B1A68FB
:100ACC00124B1B7819464FF47A73B3FBF1F3B2FB5C
:100ADC00F3F3184600F05FF90346002B01D0012315
:100AEC000EE07B680F2B0AD8002279684FF0FF309C
:100AFC0000F027F9064A7B681360002300E001230D
:100B0C0018460837BD4680BD0000002008000020B4
:100B1C000400002080B400AF054B1B781A46054B2F
:100B2C001B681344034A136000BFBD4680BC70476A
:100B3C0008000020C000002080B400AF024B1B68EE
:100B4C001846BD4680BC7047C000002080B584B0FC
:100B5C0000AF7860FFF7F0FFB8607B68FB60FB6864
:100B6C00B3F1FF3F05D00A4B1B781A46FB681344C0
:100B7C00FB6000BFFFF7E0FF0246BB68D31AFA68C0
:100B8C009A42F7D800BF00BF1037BD4680BD00BFEA
:100B9C000800002080B485B000AF78607B6803F05B
:100BAC000703FB600C4BDB68BB60BA684FF6FF03B6
:100BBC001340BB60FB681A02BB68134343F0BF636E
:100BCC0043F40033BB60044ABB68D36000BF1437E6
:100BDC00BD4680BC704700BF00ED00E080B400AFA4
:100BEC00044BDB681B0A03F007031846BD4680BCA8
:100BFC00704700BF00ED00E080B483B000AF034647
:100C0C00FB7197F90730002B0BDBFB7903F01F020C
:100C1C00064997F907305B09012000FA02F241F806
:100C2C00232000BF0C37BD4680BC704700E100E0BC
:100C3C0080B483B000AF03463960FB7197F907307D
:100C4C00002B0ADB3B68DAB20C4997F9073012012A
:100C5C00D2B20B4483F800230AE03B68DAB20849AD
:100C6C00FB7903F00F03043B1201D2B20B441A764A
:100C7C0000BF0C37BD4680BC704700BF00E100E0F0
:100C8C0000ED00E080B489B000AFF860B9607A6024
:100C9C00FB6803F00703FB61FB69C3F10703042B3B
:100CAC0028BF0423BB61FB690433062B02D9FB6903
:100CBC00033B00E000237B614FF0FF32BB6902FA7B
:100CCC0003F3DA43BB681A407B699A404FF0FF315B
:100CDC007B6901FA03F3D9437B680B401343184635
:100CEC002437BD4680BC704780B582B000AF7860B9
:100CFC007B68013BB3F1807F01D301230FE00A4AEB
:100D0C007B68013B53600F214FF0FF30FFF790FFE2
:100D1C00054B00229A60044B07221A6000231846E8
:100D2C000837BD4680BD00BF10E000E080B582B042
:100D3C0000AF78607868FFF72DFF00BF0837BD461D
:100D4C0080BD80B586B000AF0346B9607A60FB7396
:100D5C0000237B61FFF742FF78617A68B968786994
:100D6C00FFF790FF024697F90F3011461846FFF730
:100D7C005FFF00BF1837BD4680BD80B582B000AFA5
:100D8C000346FB7197F907301846FFF735FF00BF94
:100D9C000837BD4680BD80B582B000AF78607868FA
:100DAC00FFF7A2FF034618460837BD4680BD00007A
:100DBC0080B48BB000AF7860396000237B62002375
:100DCC003B6269E101227B6A02FA03F3FB613B6837
:100DDC001B68FA691340BB61BA69FB699A4240F01F
:100DEC0058813B685B689A4A93425ED0984A93421A
:100DFC0075D8984A934258D0964A93426FD8964ADF
:100E0C00934252D0944A934269D8944A93424CD01C
:100E1C00924A934263D8924A934246D0904A934264
:100E2C005DD8122B2AD8122B59D801A252F823F0D4
:100E3C00B70E0008910E0008A30E0008E50E00087E
:100E4C00EB0E0008EB0E0008EB0E0008EB0E000892
:100E5C00EB0E0008EB0E0008EB0E0008EB0E000882
:100E6C00EB0E0008EB0E0008EB0E0008EB0E000872
:100E7C00EB0E0008990E0008AD0E0008794A93425B
:100E8C0013D02CE03B68DB683B6229E03B68DB68F5
:100E9C0004333B6224E03B68DB6808333B621FE0B1
:100EAC003B68DB680C333B621AE03B689B68002BA9
:100EBC0002D104233B6213E03B689B68012B05D1F4
:100ECC0008233B627B68FA691A6109E008233B62DC
:100EDC007B68FA695A6103E000233B6200E000BFC3
:100EEC00BB69FF2B01D87B6801E07B6804337B6115
:100EFC00BB69FF2B02D87B6A9B0002E07B6A083B34
:100F0C009B003B617B691A680F213B6901FA03F373
:100F1C00DB431A40396A3B6901FA03F31A437B69D4
:100F2C001A603B685B6803F08053002B00F0B180C3
:100F3C004D4B9B694C4A43F0010393614A4B9B69AF
:100F4C0003F00103BB60BB68484A7B6A9B08023311
:100F5C0052F82330FB607B6A03F003039B000F22E3
:100F6C0002FA03F3DB43FA681340FB607B68404AE8
:100F7C00934213D07B683F4A93420DD07B683E4A24
:100F8C00934207D07B683D4A934201D1032306E08C
:100F9C00042304E0022302E0012300E000237A6A28
:100FAC0002F0030292009340FA681343FB602F494E
:100FBC007B6A9B080233FA6841F823203B685B6824
:100FCC0003F48013002B06D02D4B9A682C49BB6977
:100FDC0013438B6006E02A4B9A68BB69DB432849B4
:100FEC0013408B603B685B6803F40013002B06D046
:100FFC00234BDA682249BB691343CB6006E0204BD4
:10100C00DA68BB69DB431E491340CB603B685B6805
:10101C0003F40033002B06D0194B5A681849BB69EE
:10102C0013434B6006E0164B5A68BB69DB4314490B
:10103C0013404B603B685B6803F48033002B21D07A
:10104C000F4B1A680E49BB6913430B6021E000BFBC
:10105C00000032100000311000002210000021109E
:10106C00000012100000111000100240000001409E
:10107C0000080140000C0140001001400014014028
:10108C00000401400B4B1A68BB69DB430949134050
:10109C000B607B6A01337B623B681A687B6A22FABD
:1010AC0003F3002B7FF48EAE00BF00BF2C37BD4680
:1010BC0080BC70470004014080B483B000AF7860FE
:1010CC000B467B8013467B707B78002B03D07A8891
:1010DC007B681A6103E07B881A047B681A6100BF85
:1010EC000C37BD4680BC704780B586B000AF7860C9
:1010FC007B68002B01D1012372E27B681B6803F033
:10110C000103002B00F08780924B5B6803F00C030B
:10111C00042B0CD08F4B5B6803F00C03082B12D103
:10112C008C4B5B6803F48033B3F5803F0BD1894B58
:10113C001B6803F40033002B6CD07B685B68002BBE
:10114C0068D101234CE27B685B68B3F5803F06D124
:10115C00804B1B687F4A43F4803313602EE07B681E
:10116C005B68002B0CD17B4B1B687A4A23F48033D1
:10117C001360784B1B68774A23F4802313601DE0BF
:10118C007B685B68B3F5A02F0CD1724B1B68714A5E
:10119C0043F4802313606F4B1B686E4A43F4803317
:1011AC0013600BE06B4B1B686A4A23F480331360AB
:1011BC00684B1B68674A23F4802313607B685B6869
:1011CC00002B13D0FFF7B8FC386108E0FFF7B4FC34
:1011DC0002463B69D31A642B01D9032300E25D4B11
:1011EC001B6803F40033002BF0D014E0FFF7A4FCD1
:1011FC00386108E0FFF7A0FC02463B69D31A642B68
:10120C0001D90323ECE1534B1B6803F40033002B8F
:10121C00F0D100E000BF7B681B6803F00203002BD9
:10122C0063D04C4B5B6803F00C03002B0BD0494B89
:10123C005B6803F00C03082B1CD1464B5B6803F472
:10124C008033002B16D1434B1B6803F00203002B99
:10125C0005D07B681B69012B01D00123C0E13D4BFC
:10126C001B6823F0F8027B685B69DB003949134388
:10127C000B603AE07B681B69002B20D0364B0122B7
:10128C001A60FFF759FC386108E0FFF755FC02467D
:10129C003B69D31A022B01D90323A1E12D4B1B6807
:1012AC0003F00203002BF0D02A4B1B6823F0F8024A
:1012BC007B685B69DB00274913430B6015E0264B09
:1012CC0000221A60FFF738FC386108E0FFF734FCA5
:1012DC0002463B69D31A022B01D9032380E11D4B33
:1012EC001B6803F00203002BF0D17B681B6803F032
:1012FC000803002B3AD07B689B69002B19D0174B45
:10130C0001221A60FFF718FC386108E0FFF714FCA3
:10131C0002463B69D31A022B01D9032360E10D4B22
:10132C005B6A03F00203002BF0D0012000F0CEFA30
:10133C001CE00A4B00221A60FFF7FEFB38610FE03D
:10134C00FFF7FAFB02463B69D31A022B08D9032399
:10135C0046E100BF001002400000424280044242BD
:10136C00924B5B6A03F00203002BE9D17B681B688C
:10137C0003F00403002B00F0A6800023FB758B4BBD
:10138C00DB6903F08053002B0DD1884BDB69874A56
:10139C0043F08053D361854BDB6903F08053BB6012
:1013AC00BB680123FB75824B1B6803F48073002B15
:1013BC0018D17F4B1B687E4A43F480731360FFF790
:1013CC00BBFB386108E0FFF7B7FB02463B69D31A59
:1013DC00642B01D9032303E1754B1B6803F4807361
:1013EC00002BF0D07B68DB68012B06D16F4B1B6A9E
:1013FC006E4A43F0010313622DE07B68DB68002B1F
:10140C000CD16A4B1B6A694A23F001031362674BC8
:10141C001B6A664A23F0040313621CE07B68DB68DA
:10142C00052B0CD1614B1B6A604A43F00403136219
:10143C005E4B1B6A5D4A43F0010313620BE05B4B8E
:10144C001B6A5A4A23F001031362584B1B6A574A12
:10145C0023F0040313627B68DB68002B15D0FFF7C5
:10146C006BFB38610AE0FFF767FB02463B69D31A56
:10147C0041F28832934201D90323B1E04B4B1B6AF2
:10148C0003F00203002BEED014E0FFF755FB38619C
:10149C000AE0FFF751FB02463B69D31A41F288324E
:1014AC00934201D903239BE0404B1B6A03F00203D8
:1014BC00002BEED1FB7D012B05D13C4BDB693B4A6C
:1014CC0023F08053D3617B68DB69002B00F08780AD
:1014DC00364B5B6803F00C03082B61D07B68DB692F
:1014EC00022B46D1334B00221A60FFF725FB3861E3
:1014FC0008E0FFF721FB02463B69D31A022B01D906
:10150C0003236DE0294B1B6803F00073002BF0D113
:10151C007B681B6AB3F5803F08D1244B5B6823F4CE
:10152C0000327B689B68214913434B601F4B5B68FF
:10153C0023F474127B68196A7B685B6A0B431B4942
:10154C0013434B601B4B01221A60FFF7F5FA38610D
:10155C0008E0FFF7F1FA02463B69D31A022B01D9D6
:10156C0003233DE0114B1B6803F00073002BF0D0FC
:10157C0035E0104B00221A60FFF7DEFA386108E004
:10158C00FFF7DAFA02463B69D31A022B01D903237F
:10159C0026E0064B1B6803F00073002BF0D11EE015
:1015AC007B68DB69012B07D1012319E00010024095
:1015BC0000700040600042420B4B5B68FB60FB68B4
:1015CC0003F480327B681B6A9A4206D1FB6803F4F1
:1015DC0070127B685B6A9A4201D0012300E0002301
:1015EC0018461837BD4680BD0010024080B584B047
:1015FC0000AF786039607B68002B01D10123D0E00B
:10160C006A4B1B6803F007033A689A4210D9674B80
:10161C001B6823F0070265493B6813430B60634B5F
:10162C001B6803F007033A689A4201D00123B8E023
:10163C007B681B6803F00203002B20D07B681B68BF
:10164C0003F00403002B05D0594B5B68584A43F454
:10165C00E06353607B681B6803F00803002B05D024
:10166C00534B5B68524A43F460535360504B5B6876
:10167C0023F0F0027B689B684D4913434B607B68F9
:10168C001B6803F00103002B40D07B685B68012BC7
:10169C0007D1474B1B6803F40033002B15D10123F2
:1016AC007FE07B685B68022B07D1414B1B6803F022
:1016BC000073002B09D1012373E03D4B1B6803F031
:1016CC000203002B01D101236BE0394B5B6823F043
:1016DC0003027B685B68364913434B60FFF72CFAB7
:1016EC00F8600AE0FFF728FA0246FB68D31A41F2C9
:1016FC008832934201D9032353E02D4B5B6803F0EE
:10170C000C027B685B689B009A42EBD1274B1B68F1
:10171C0003F007033A689A4210D2244B1B6823F05B
:10172C00070222493B6813430B60204B1B6803F0F4
:10173C0007033A689A4201D0012332E07B681B68A8
:10174C0003F00403002B08D0194B5B6823F4E06210
:10175C007B68DB68164913434B607B681B6803F09E
:10176C000803002B09D0124B5B6823F460527B6892
:10177C001B69DB000E4913434B6000F021F8024655
:10178C000B4B5B681B0903F00F030A49CB5C22FA75
:10179C0003F3094A1360094B1B681846FFF78AF9D3
:1017AC00002318461037BD4680BD00BF0020024004
:1017BC00001002403C2D0008000000200400002016
:1017CC0080B487B000AF0023FB600023BB60002314
:1017DC007B6100237B6000233B611E4B5B68FB60DD
:1017EC00FB6803F00C03042B02D0082B03D027E07A
:1017FC00194B3B6127E0FB689B0C03F00F03174A66
:10180C00D35C7B60FB6803F48033002B10D0114B4E
:10181C005B685B0C03F00103114AD35CBB607B6813
:10182C000D4A03FB02F2BB68B2FBF3F37B6104E0ED
:10183C007B680C4A02FB03F37B617B693B6102E032
:10184C00054B3B6100BF3B6918461C37BD4680BC4D
:10185C00704700BF0010024000127A00542D00089F
:10186C00642D000800093D0080B400AF024B1B68DA
:10187C001846BD4680BC70470000002080B500AF04
:10188C00FFF7F2FF0246054B5B681B0A03F00703E8
:10189C000349CB5C22FA03F3184680BD00100240CA
:1018AC004C2D000880B500AFFFF7DEFF0246054B5C
:1018BC005B68DB0A03F007030349CB5C22FA03F3F2
:1018CC00184680BD001002404C2D000880B485B035
:1018DC0000AF78600A4B1B680A4AA2FB03235B0A21
:1018EC007A6802FB03F3FB6000BFFB685A1EFA60C8
:1018FC00002BF9D100BF00BF1437BD4680BC704728
:10190C0000000020D34D621080B582B000AF78602B
:10191C007B68002B01D1012341E07B6893F83D30BB
:10192C00DBB2002B06D17B68002283F83C20786860
:10193C00FEF7A8FF7B68022283F83D207B681A68BB
:10194C007B6804331946104600F0CEFB7B680122FD
:10195C0083F846207B68012283F83E207B680122B5
:10196C0083F83F207B68012283F840207B680122AA
:10197C0083F841207B68012283F842207B68012296
:10198C0083F843207B68012283F844207B68012282
:10199C0083F845207B68012283F83D2000231846FC
:1019AC000837BD4680BD80B582B000AF78607B68DB
:1019BC00002B01D1012341E07B6893F83D30DBB271
:1019CC00002B06D17B68002283F83C20786800F05D
:1019DC0039F87B68022283F83D207B681A687B68A3
:1019EC0004331946104600F07FFB7B68012283F814
:1019FC0046207B68012283F83E207B68012283F815
:101A0C003F207B68012283F840207B68012283F809
:101A1C0041207B68012283F842207B68012283F8F5
:101A2C0043207B68012283F844207B68012283F8E1
:101A3C0045207B68012283F83D2000231846083797
:101A4C00BD4680BD80B483B000AF786000BF0C375A
:101A5C00BD4680BC7047000080B584B000AF786094
:101A6C0039603B68002B09D17B6893F83E30DBB2C0
:101A7C00012B14BF01230023DBB222E03B68042BB3
:101A8C0009D17B6893F83F30DBB2012B14BF0123E3
:101A9C000023DBB215E03B68082B09D17B6893F877
:101AAC004030DBB2012B14BF01230023DBB208E072
:101ABC007B6893F84130DBB2012B14BF0123002368
:101ACC00DBB2002B01D001235EE03B68002B04D17C
:101ADC007B68022283F83E2013E03B68042B04D180
:101AEC007B68022283F83F200BE03B68082B04D173
:101AFC007B68022283F8402003E07B68022283F893
:101B0C0041207B681B6801223968184600F078FD7B
:101B1C007B681B681E4A934207D17B681B685A6C12
:101B2C007B681B6842F400425A647B681B68184A45
:101B3C0093420ED07B681B68B3F1804F09D07B6851
:101B4C001B68144A934204D07B681B68124A934268
:101B5C0011D17B681B689B6803F00703FB60FB6873
:101B6C00062B10D07B681B681A687B681B6842F0D8
:101B7C0001021A6007E07B681B681A687B681B68A7
:101B8C0042F001021A60002318461037BD4680BD92
:101B9C00002C0140000400400008004080B584B0D7
:101BAC0000AF78607B681B68DB68FB607B681B6838
:101BBC001B69BB60BB6803F00203002B20D0FB68E1
:101BCC0003F00203002B1BD07B681B686FF0020232
:101BDC001A617B6801221A777B681B689B6903F08A
:101BEC000303002B03D0786800F063FA05E07868F3
:101BFC0000F056FA786800F065FA7B6800221A77D4
:101C0C00BB6803F00403002B20D0FB6803F0040333
:101C1C00002B1BD07B681B686FF004021A617B6879
:101C2C0002221A777B681B689B6903F44073002BB4
:101C3C0003D0786800F03DFA05E0786800F030FADF
:101C4C00786800F03FFA7B6800221A77BB6803F0D3
:101C5C000803002B20D0FB6803F00803002B1BD0DB
:101C6C007B681B686FF008021A617B6804221A7784
:101C7C007B681B68DB6903F00303002B03D07868D7
:101C8C0000F017FA05E0786800F00AFA786800F0BE
:101C9C0019FA7B6800221A77BB6803F01003002B3B
:101CAC0020D0FB6803F01003002B1BD07B681B6853
:101CBC006FF010021A617B6808221A777B681B6828
:101CCC00DB6903F44073002B03D0786800F0F1F962
:101CDC0005E0786800F0E4F9786800F0F3F97B68C7
:101CEC0000221A77BB6803F00103002B0CD0FB68B1
:101CFC0003F00103002B07D07B681B686FF0010217
:101D0C001A61786800F0C3F9BB6803F08003002BFC
:101D1C000CD0FB6803F08003002B07D07B681B689A
:101D2C006FF080021A61786800F0F5FCBB6803F074
:101D3C004003002B0CD0FB6803F04003002B07D0B2
:101D4C007B681B686FF040021A61786800F0C3F979
:101D5C00BB6803F02003002B0CD0FB6803F02003BE
:101D6C00002B07D07B681B686FF020021A61786823
:101D7C0000F0C8FC00BF1037BD4680BD80B586B0F2
:101D8C0000AFF860B9607A600023FB75FB6893F8CC
:101D9C003C30012B01D10223AEE0FB68012283F819
:101DAC003C207B680C2B00F29F8001A252F823F0A0
:101DBC00F11D0008F51E0008F51E0008F51E0008B0
:101DCC00311E0008F51E0008F51E0008F51E00085F
:101DDC00731E0008F51E0008F51E0008F51E00080D
:101DEC00B31E0008FB681B68B968184600F0EAF9D6
:101DFC00FB681B689A69FB681B6842F008029A61D1
:101E0C00FB681B689A69FB681B6822F004029A61E4
:101E1C00FB681B689969BB681A69FB681B680A43F5
:101E2C009A6164E0FB681B68B968184600F030FAE8
:101E3C00FB681B689A69FB681B6842F400629A6134
:101E4C00FB681B689A69FB681B6822F480629A61C4
:101E5C00FB681B689969BB681B691A02FB681B68E5
:101E6C000A439A6143E0FB681B68B968184600F0A6
:101E7C0079FAFB681B68DA69FB681B6842F0080298
:101E8C00DA61FB681B68DA69FB681B6822F00402E4
:101E9C00DA61FB681B68D969BB681A69FB681B6847
:101EAC000A43DA6123E0FB681B68B968184600F046
:101EBC00C3FAFB681B68DA69FB681B6842F40062B2
:101ECC00DA61FB681B68DA69FB681B6822F48062C4
:101EDC00DA61FB681B68D969BB681B691A02FB686D
:101EEC001B680A43DA6102E00123FB7500BFFB6843
:101EFC00002283F83C20FB7D18461837BD4680BD78
:101F0C0080B584B000AF786039600023FB737B68C8
:101F1C0093F83C30012B01D10223B4E07B68012201
:101F2C0083F83C207B68022283F83D207B681B6889
:101F3C009B68BB60BB6823F07703BB60BB6823F472
:101F4C007F43BB607B681B68BA689A603B681B6800
:101F5C00B3F5005F3ED0B3F5005F00F28780B3F5B8
:101F6C00805F00F08680B3F5805F7FD8702B1AD02D
:101F7C00702B7BD8602B50D0602B77D8502B3CD05B
:101F8C00502B73D8402B58D0402B6FD8302B64D0AB
:101F9C00302B6BD8202B60D0202B67D8002B5CD03B
:101FAC00102B5AD062E07B6818683B6899683B68D4
:101FBC005A683B68DB6800F004FB7B681B689B6815
:101FCC00BB60BB6843F07703BB607B681B68BA6877
:101FDC009A604FE07B6818683B6899683B685A6860
:101FEC003B68DB6800F0EDFA7B681B689A687B68DD
:101FFC001B6842F480429A603CE07B6818683B683E
:10200C0059683B68DB681A4600F064FA7B681B6809
:10201C005021184600F0BBFA2CE07B6818683B682E
:10202C0059683B68DB681A4600F082FA7B681B68CB
:10203C006021184600F0ABFA1CE07B6818683B681E
:10204C0059683B68DB681A4600F044FA7B681B68E9
:10205C004021184600F09BFA0CE07B681A683B683C
:10206C001B681946104600F092FA03E00123FB733B
:10207C0000E000BF7B68012283F83D207B680022D2
:10208C0083F83C20FB7B18461037BD4680BD80B4DE
:10209C0083B000AF786000BF0C37BD4680BC704782
:1020AC0080B483B000AF786000BF0C37BD4680BCF5
:1020BC00704780B483B000AF786000BF0C37BD466A
:1020CC0080BC704780B483B000AF786000BF0C3721
:1020DC00BD4680BC704780B483B000AF786000BF51
:1020EC000C37BD4680BC704780B485B000AF7860BB
:1020FC0039607B681B68FB607B682F4A93420BD06E
:10210C007B68B3F1804F07D07B682C4A934203D095
:10211C007B682B4A934208D1FB6823F07003FB6069
:10212C003B685B68FA681343FB607B68224A934206
:10213C000BD07B68B3F1804F07D07B681F4A93426A
:10214C0003D07B681E4A934208D1FB6823F440738A
:10215C00FB603B68DB68FA681343FB60FB6823F0A9
:10216C0080023B685B691343FB607B68FA681A600A
:10217C003B689A687B68DA623B681A687B689A628B
:10218C007B680D4A934203D13B681A697B681A63DA
:10219C007B6801225A617B681B6903F00103002BE9
:1021AC0005D07B681B6923F001027B681A6100BFB4
:1021BC001437BD4680BC7047002C01400004004021
:1021CC000008004080B487B000AF786039607B684D
:1021DC001B6A7B617B681B6A23F001027B681A62B5
:1021EC007B685B683B617B689B69FB60FB6823F0E9
:1021FC007003FB60FB6823F00303FB603B681B6808
:10220C00FA681343FB607B6923F002037B613B6834
:10221C009B687A6913437B617B681C4A93420CD19F
:10222C007B6923F008037B613B68DB687A691343A5
:10223C007B617B6923F004037B617B68134A9342C7
:10224C0011D13B6923F480733B613B6923F4007328
:10225C003B613B685B693A6913433B613B689B6933
:10226C003A6913433B617B683A695A607B68FA6848
:10227C009A613B685A687B685A637B687A691A6210
:10228C0000BF1C37BD4680BC704700BF002C01400E
:10229C0080B487B000AF786039607B681B6A7B6163
:1022AC007B681B6A23F010027B681A627B685B6890
:1022BC003B617B689B69FB60FB6823F4E043FB603C
:1022CC00FB6823F44073FB603B681B681B02FA68D5
:1022DC001343FB607B6923F020037B613B689B68A5
:1022EC001B017A6913437B617B681D4A93420DD1B4
:1022FC007B6923F080037B613B68DB681B017A6997
:10230C0013437B617B6923F040037B617B68144A38
:10231C00934213D13B6923F480633B613B6923F403
:10232C0000633B613B685B699B003A6913433B610B
:10233C003B689B699B003A6913433B617B683A6934
:10234C005A607B68FA689A613B685A687B689A6342
:10235C007B687A691A6200BF1C37BD4680BC704727
:10236C00002C014080B487B000AF786039607B6886
:10237C001B6A7B617B681B6A23F480727B681A6220
:10238C007B685B683B617B68DB69FB60FB6823F007
:10239C007003FB60FB6823F00303FB603B681B6866
:1023AC00FA681343FB607B6923F400737B613B6821
:1023BC009B681B027A6913437B617B681D4A9342BD
:1023CC000DD17B6923F400637B613B68DB681B02E6
:1023DC007A6913437B617B6923F480637B617B683F
:1023EC00144A934213D13B6923F480533B613B69FC
:1023FC0023F400533B613B685B691B013A6913434F
:10240C003B613B689B691B013A6913433B617B68E9
:10241C003A695A607B68FA68DA613B685A687B688B
:10242C00DA637B687A691A6200BF1C37BD4680BCD0
:10243C00704700BF002C014080B487B000AF7860BB
:10244C0039607B681B6A3B617B681B6A23F4805292
:10245C007B681A627B685B687B617B68DB69FB600D
:10246C00FB6823F4E043FB60FB6823F44073FB60E0
:10247C003B681B681B02FA681343FB603B6923F43F
:10248C0000533B613B689B681B033A6913433B61F8
:10249C007B680F4A934209D17B6923F480437B61AB
:1024AC003B685B699B017A6913437B617B687A6942
:1024BC005A607B68FA68DA613B685A687B681A6410
:1024CC007B683A691A6200BF1C37BD4680BC7047F6
:1024DC00002C014080B487B000AFF860B9607A601E
:1024EC00FB681B6A7B61FB681B6A23F00102FB68BB
:1024FC001A62FB689B693B613B6923F0F0033B610B
:10250C007B681B013A6913433B617B6923F00A0327
:10251C007B617A69BB6813437B61FB683A699A619A
:10252C00FB687A691A6200BF1C37BD4680BC7047D5
:10253C0080B487B000AFF860B9607A60FB681B6A42
:10254C007B61FB681B6A23F01002FB681A62FB6854
:10255C009B693B613B6923F470433B617B681B03C4
:10256C003A6913433B617B6923F0A0037B61BB6831
:10257C001B017A6913437B61FB683A699A61FB68BA
:10258C007A691A6200BF1C37BD4680BC704780B4A4
:10259C0085B000AF786039607B689B68FB60FB6836
:1025AC0023F07003FB603A68FB68134343F00703A6
:1025BC00FB607B68FA689A6000BF1437BD4680BC2C
:1025CC00704780B487B000AFF860B9607A603B6048
:1025DC00FB689B687B617B6923F47F437B613B6871
:1025EC001A027B681A43BB6813437A6913437B61F5
:1025FC00FB687A699A6000BF1C37BD4680BC704787
:10260C0080B487B000AFF860B9607A60BB6803F043
:10261C001F03012202FA03F37B61FB681A6A7B69D0
:10262C00DB431A40FB681A62FB681A6ABB6803F04A
:10263C001F03796801FA03F31A43FB681A6200BF9F
:10264C001C37BD4680BC704780B485B000AF786045
:10265C0039607B6893F83C30012B01D1022346E0B2
:10266C007B68012283F83C207B68022283F83D20A2
:10267C007B681B685B68FB607B681B689B68BB6046
:10268C00FB6823F07003FB603B681B68FA6813431C
:10269C00FB607B681B68FA685A607B681B68164A8B
:1026AC0093420ED07B681B68B3F1804F09D07B68D6
:1026BC001B68124A934204D07B681B68104A9342F1
:1026CC000CD1BB6823F08003BB603B685B68BA68C5
:1026DC001343BB607B681B68BA689A607B680122F5
:1026EC0083F83D207B68002283F83C2000231846A9
:1026FC001437BD4680BC7047002C014000040040DC
:10270C000008004080B483B000AF786000BF0C3785
:10271C00BD4680BC704780B483B000AF786000BF0A
:10272C000C37BD4680BC704780B582B000AF786076
:10273C007B68002B01D1012342E07B6893F8413088
:10274C00DBB2002B06D17B68002283F8402078682E
:10275C00FEF7ECF87B68242283F841207B681B6829
:10276C00DA687B681B6822F40052DA60786800F043
:10277C0009FA7B681B681A697B681B6822F4904213
:10278C001A617B681B685A697B681B6822F02A02F5
:10279C005A617B681B68DA687B681B6842F40052DC
:1027AC00DA607B6800225A647B68202283F841201F
:1027BC007B68202283F842207B6800225A63002326
:1027CC0018460837BD4680BD80B58AB002AFF860A8
:1027DC00B9603B601346FB8000237B61FB6893F878
:1027EC004130DBB2202B75D1BB68002B02D0FB88AB
:1027FC00002B01D101236EE0FB6800225A64FB68B8
:10280C00212283F84120FEF797F97861FB68FA885A
:10281C009A84FB68FA88DA84FB689B68B3F5805F5E
:10282C0008D1FB681B69002B04D10023FB61BB683A
:10283C00BB6103E0BB68FB610023BB612EE03B681E
:10284C0000937B6900228021F86800F0DFF80346D2
:10285C00002B05D0FB68202283F8412003233AE0AB
:10286C00FB69002B0BD1BB691B881A46FB681B68E4
:10287C00C2F308025A60BB690233BB6107E0FB6913
:10288C001A78FB681B685A60FB690133FB61FB68B3
:10289C00DB8C9BB2013B9AB2FB68DA84FB68DB8C65
:1028AC009BB2002BCBD13B6800937B69002240216B
:1028BC00F86800F0ABF80346002B05D0FB6820222B
:1028CC0083F84120032306E0FB68202283F8412093
:1028DC00002300E0022318462037BD4680BD80B59A
:1028EC008AB002AFF860B9603B601346FB800023EE
:1028FC007B61FB6893F84230DBB2202B40F0818087
:10290C00BB68002B02D0FB88002B01D1012379E09E
:10291C00FB6800225A64FB68222283F84220FB6881
:10292C0000221A63FEF708F97861FB68FA889A8529
:10293C00FB68FA88DA85FB689B68B3F5805F08D181
:10294C00FB681B69002B04D10023FB61BB68BB61D6
:10295C0003E0BB68FB610023BB6147E03B6800936D
:10296C007B6900222021F86800F050F80346002B08
:10297C0005D0FB68202283F84220032342E0FB6948
:10298C00002B0CD1FB681B685B689BB2C3F308037C
:10299C009AB2BB691A80BB690233BB611FE0FB684A
:1029AC009B68B3F5805F07D0FB689B68002B0AD14E
:1029BC00FB681B69002B06D1FB681B685B68DAB2ED
:1029CC00FB691A7008E0FB681B685B68DBB203F0FC
:1029DC007F03DAB2FB691A70FB690133FB61FB6898
:1029EC00DB8D9BB2013B9AB2FB68DA85FB68DB8D11
:1029FC009BB2002BB2D1FB68202283F8422000232B
:102A0C0000E0022318462037BD4680BD80B586B055
:102A1C0000AFF860B9603B601346FB713BE03B6A6A
:102A2C00B3F1FF3F37D0FEF787F802463B68D31A65
:102A3C003A6A9A4202D33B6A002B01D103233AE053
:102A4C00FB681B68DB6803F00403002B23D0BB6816
:102A5C00802B20D0BB68402B1DD0FB681B681B68EB
:102A6C0003F00803082B16D100237B61FB681B685D
:102A7C001B687B61FB681B685B687B617B69F86822
:102A8C0000F01DF8FB6808225A64FB68002283F8EA
:102A9C00402001230FE0FB681B681A68BB681340D9
:102AAC00BA689A420CBF01230023DBB21A46FB79A9
:102ABC009A42B4D0002318461837BD4680BD80B466
:102ACC0095B000AF78607B681B680C337B637B6BC5
:102ADC0053E8003F3B633B6B23F49073FB647B68D0
:102AEC001B680C33FA6C3A64FB63F96B3A6C41E883
:102AFC000023BB63BB6B002BE5D17B681B681433D5
:102B0C003B623B6A53E8003FFB61FB6923F0010326
:102B1C00BB647B681B681433BA6CFA62BB62B96A1B
:102B2C00FA6A41E800237B627B6A002BE5D17B6863
:102B3C001B6B012B19D17B681B680C33FB60FB688A
:102B4C0053E8003FBB60BB6823F010037B647B68D9
:102B5C001B680C337A6CBA617B617969BA6941E89C
:102B6C0000233B613B69002BE5D17B68202283F875
:102B7C0042207B6800221A6300BF5437BD4680BCDC
:102B8C007047000080B584B000AF78607B681B682C
:102B9C001B6923F440517B68DA687B681B680A4325
:102BAC001A617B689A687B681B691A437B685B694E
:102BBC001343BB607B681B68DB6823F4B05323F0C2
:102BCC000C037A681268B9680B43D3607B681B6886
:102BDC005B6923F440717B689A697B681B680A43C4
:102BEC005A617B681B682C4A934203D1FEF75AFE4C
:102BFC00F86002E0FEF742FEF860FA6813469B00AC
:102C0C0013449A001A447B685B689B00B2FBF3F395
:102C1C00224AA2FB03235B091901FA6813469B00A5
:102C2C0013449A001A447B685B689B00B2FBF3F276
:102C3C001A4BA3FB02035B09642000FB03F3D31ABA
:102C4C001B013233154AA2FB03235B0903F0F0038B
:102C5C001944FA6813469B0013449A001A447B6883
:102C6C005B689B00B2FBF3F20C4BA3FB02035B090A
:102C7C00642000FB03F3D31A1B013233074AA2FB77
:102C8C0003235B0903F00F027B681B680A449A60FC
:102C9C0000BF1037BD4680BD003801401F85EB5189
:102CAC0003460244934200D1704703F8011BF9E735
:102CBC0070B500260C4D0D4C641BA410A64209D116
:102CCC0000F01AF800260A4D0A4C641BA410A64208
:102CDC0005D170BD55F8043B98470136EEE755F821
:102CEC00043B98470136F2E7702D0008702D000860
:102CFC00702D0008742D0008F8B500BFF8BC08BC96
:102D0C009E467047F8B500BFF8BC08BC9E4670479D
:102D1C00526F626F7420426C7565746F6F746820AB
:102D2C0048433035206C6973746F0D0A0000000045
:102D3C00000000000000000001020304060708095F
:102D4C000000000001020304020304050607080941
:0C2D5C000A0B0C0D0E0F101001020000FD
:082D6800E4D3FF7F010000002D
:042D70003101000825
:042D74000D01000845
:0C2D780000127A001000000001000000B2
:0400000508000A499C
:00000001FF
