:020000040800F2
:100000000050002065080008ED070008F50700080B
:10001000FD070008050800080D08000800000000A2
:1000200000000000000000000000000015080008AB
:1000300021080008000000002D0800083908000809
:10004000AD080008AD080008AD080008AD080008BC
:10005000AD080008AD080008AD080008AD080008AC
:10006000AD080008AD080008AD080008AD0800089C
:10007000AD080008AD080008AD080008AD0800088C
:10008000AD080008AD080008AD080008AD0800087C
:10009000AD080008AD080008AD080008AD0800086C
:1000A000AD080008AD080008AD080008AD0800085C
:1000B00045080008AD080008AD080008AD080008B4
:1000C000AD080008AD080008AD080008AD0800083C
:1000D000AD080008AD080008AD080008AD0800082C
:1000E000AD080008AD080008AD08000800000000D9
:1000F0000000000000000000000000000000000000
:0C01000000000000000000005FF808F1A3
:10010C0010B5054C237833B9044B13B10448AFF345
:10011C0000800123237010BD0C00002000000000A3
:10012C000428000808B5034B1BB103490348AFF37F
:10013C00008008BD0000000010000020042800080A
:10014C0080B582B000AF0346FB71FB79052B27D835
:10015C0001A252F823F000BF7D01000885010008C0
:10016C008D010008950100089D010008A5010008FB
:10017C000F4800F08BFA17E00E4800F087FA13E0F6
:10018C000D4800F083FA0FE00C4800F07FFA0BE00A
:10019C000B4800F07BFA07E00A4800F077FA03E01E
:1001AC00034800F073FA00BF00BF0837BD4680BD9E
:1001BC001C2800081C3800081C3C00081C340008D3
:1001CC001C2C00081C30000880B582B000AF00F079
:1001DC0069FB00F035F800F0F3F800F0A5F800F03A
:1001EC0075F800F0B9F90020FFF7AAFF00F0B2FB98
:1001FC0078600023FB7000F0ADFB02467B68D31ADD
:10020C0040F6B832934214D900F0A4FB7860FB7826
:10021C005A1C0A4B83FB0231D317C91A0B465B00DD
:10022C000B445B00D11A0B46FB70FB781846FFF7AA
:10023C0087FF0A2000F098FBDDE700BFABAAAA2AD3
:10024C0080B590B000AF07F11803282200211846A2
:10025C0002F098FA3B1D00221A605A609A60DA602C
:10026C001A610123BB614FF48033FB6100233B62B5
:10027C000123BB6202237B634FF48033BB634FF4D7
:10028C00E013FB6307F11803184601F0D7FA034695
:10029C00002B01D000F0ECF80F237B600223BB6035
:1002AC000023FB604FF480633B6100237B613B1DAB
:1002BC000221184601F044FD0346002B01D000F04A
:1002CC00D7F800BF4037BD4680BD000080B500AFF9
:1002DC00124B134A1A60114B124A5A600F4B0022F0
:1002EC009A600E4B0022DA600C4B4FF480421A617C
:1002FC000A4B00225A61094B00229A61074B0022DB
:10030C00DA61064B00221A62044800F0FBFD03463A
:10031C00002B01D000F0ACF800BF80BD28000020FD
:10032C0000540040A086010080B586B000AF07F1F4
:10033C00080300221A605A609A60DA603B46002279
:10034C001A605A601D4B4FF080421A601B4B4722BB
:10035C005A601A4B00229A60184B40F2E732DA606E
:10036C00164B00221A61154B00229A61134801F0BA
:10037C0061FE0346002B01D000F07AF84FF4805355
:10038C00BB6007F1080319460C4801F092FF0346C5
:10039C00002B01D000F06CF800233B6000237B6045
:1003AC003B461946054802F07DF90346002B01D067
:1003BC0000F05EF800BF1837BD4680BD7C00002001
:1003CC0080B588B000AF07F1100300221A605A60A4
:1003DC009A60DA60244B9B69234A43F010039361C3
:1003EC00214B9B6903F01003FB60FB681E4B9B6960
:1003FC001D4A43F0200393611B4B9B6903F02003C0
:10040C00BB60BB68184B9B69174A43F004039361AC
:10041C00154B9B6903F004037B607B68124B9B6953
:10042C00114A43F0080393610F4B9B6903F00803D7
:10043C003B603B6800224FF400510C4800F04AFD31
:10044C004FF400533B6101237B610023BB6102230A
:10045C00FB6107F110031946044800F0B7FB00BF1D
:10046C002037BD4680BD00BF001002400010014087
:10047C0080B400AF72B600BF00BFFDE780B586B098
:10048C0002AF0346FB7100233B73FB797B7307F1CF
:10049C000C026423009302237821034800F076FEBB
:1004AC0000BF1037BD4680BD2800002080B5C6B007
:1004BC0002AF07F58873A3F5867318600A4607F533
:1004CC008873A3F587731A8007F58873A3F5877370
:1004DC001B88FF2B38D807F58873A3F5827340224D
:1004EC001A700023A7F80E3115E0B7F80E3107F596
:1004FC008872A2F5867212681A44B7F80E3101336D
:10050C00117807F58872A2F58272D154B7F80E31C2
:10051C000133A7F80E3107F58873A3F58773B7F885
:10052C000E211B889A42E0D307F58873A3F58773D5
:10053C001B8801339BB207F10C02642100917821D6
:10054C00044800F023FE00E000BF07F58877BD46A5
:10055C0080BD00BF2800002080B500AF642000F0F3
:10056C0003FAAE20FFF78AFFD520FFF787FF802024
:10057C00FFF784FFA820FFF781FF3F20FFF77EFFE6
:10058C00D320FFF77BFF0020FFF778FF4020FFF719
:10059C0075FF8D20FFF772FF1420FFF76FFF2020EF
:1005AC00FFF76CFF0020FFF769FFA120FFF766FF44
:1005BC00C820FFF763FFDA20FFF760FF1220FFF778
:1005CC005DFF8120FFF75AFFCF20FFF757FFD9209F
:1005DC00FFF754FFF120FFF751FFDB20FFF74EFF31
:1005EC004020FFF74BFFA420FFF748FFA620FFF7A2
:1005FC0045FF2E20FFF742FFAF20FFF73FFF002003
:10060C0000F004F800F01AF800BF80BD80B582B08D
:10061C0000AF0346FB71FB79002B01D0FF2300E0F8
:10062C0000234FF480621946034802F0ABF800BF78
:10063C000837BD4680BD00BFC400002080B582B025
:10064C0000AF0023FB7116E0FB79503BDBB2184680
:10065C00FFF714FF0020FFF711FF1020FFF70EFF2C
:10066C00FB79DB01084A134480211846FFF71EFF73
:10067C00FB790133FB71FB79072BE5D900BF00BF78
:10068C000837BD4680BD00BFC400002080B582B0D5
:10069C0000AF7860074A7B68104619464FF48063B8
:1006AC001A4602F09BF8FFF7C9FF00BF0837BD469A
:1006BC0080BD00BFC400002080B485B000AF154BD6
:1006CC009B69144A43F001039361124B9B6903F03D
:1006DC000103BB60BB680F4BDB690E4A43F08053D0
:1006EC00D3610C4BDB6903F080537B607B680A4B56
:1006FC005B68FB60FB6823F0E063FB60FB6843F026
:10070C000073FB60044AFB68536000BF1437BD469E
:10071C0080BC7047001002400000014080B588B0DA
:10072C0000AF786007F1100300221A605A609A60DB
:10073C00DA607B681B68154A934223D1144B9B6982
:10074C00134A43F008039361114B9B6903F00803B0
:10075C00FB60FB68C0233B6112237B610323FB61BD
:10076C0007F1100319460B4800F030FA084BDB690F
:10077C00074A43F40013D361054BDB6903F4001300
:10078C00BB60BB6800BF2037BD4680BD0054004035
:10079C0000100240000C014080B584B000AF7860BE
:1007AC007B681B68B3F1804F13D10C4BDB690B4A90
:1007BC0043F00103D361094BDB6903F00103FB60D8
:1007CC00FB68002200211C2000F0C9F91C2000F05D
:1007DC00E2F900BF1037BD4680BD00BF00100240DB
:1007EC0080B400AF00BFFDE780B400AF00BFFDE7F1
:1007FC0080B400AF00BFFDE780B400AF00BFFDE7E1
:10080C0080B400AF00BFFDE780B400AF00BFBD46B1
:10081C0080BC704780B400AF00BFBD4680BC704741
:10082C0080B400AF00BFBD4680BC704780B500AF40
:10083C0000F07EF800BF80BD80B500AF024801F02B
:10084C0048FC00BF80BD00BF7C00002080B400AF1E
:10085C0000BFBD4680BC7047FFF7F8FF0B480C4942
:10086C000C4A002302E0D458C4500433C4188C4200
:10087C00F9D3094A094C002301E013600432A24267
:10088C00FBD301F087FFFFF79FFC704700000020AF
:10089C000C000020504000080C000020C804002070
:1008AC00FEE7000080B500AF084B1B68074A43F019
:1008BC0010031360032000F047F90F2000F008F834
:1008CC00FFF7FAFE0023184680BD00BF002002404F
:1008DC0080B582B000AF7860124B1A68124B1B784F
:1008EC0019464FF47A73B3FBF1F3B2FBF3F31846EA
:1008FC0000F05FF90346002B01D001230EE07B686A
:10090C000F2B0AD8002279684FF0FF3000F027F93E
:10091C00064A7B681360002300E001231846083761
:10092C00BD4680BD0000002008000020040000200F
:10093C0080B400AF054B1B781A46054B1B6813445B
:10094C00034A136000BFBD4680BC704708000020FE
:10095C00C404002080B400AF024B1B681846BD468F
:10096C0080BC7047C404002080B584B000AF7860B0
:10097C00FFF7F0FFB8607B68FB60FB68B3F1FF3FEB
:10098C0005D00A4B1B781A46FB681344FB6000BF6A
:10099C00FFF7E0FF0246BB68D31AFA689A42F7D811
:1009AC0000BF00BF1037BD4680BD00BF080000204F
:1009BC0080B485B000AF78607B6803F00703FB6000
:1009CC000C4BDB68BB60BA684FF6FF031340BB608F
:1009DC00FB681A02BB68134343F0BF6343F4003354
:1009EC00BB60044ABB68D36000BF1437BD4680BCF3
:1009FC00704700BF00ED00E080B400AF044BDB6833
:100A0C001B0A03F007031846BD4680BC704700BFA5
:100A1C0000ED00E080B483B000AF0346FB7197F9A2
:100A2C000730002B0BDBFB7903F01F02064997F90B
:100A3C0007305B09012000FA02F241F8232000BFC5
:100A4C000C37BD4680BC704700E100E080B483B039
:100A5C0000AF03463960FB7197F90730002B0ADBB6
:100A6C003B68DAB20C4997F907301201D2B20B4449
:100A7C0083F800230AE03B68DAB20849FB7903F0FB
:100A8C000F03043B1201D2B20B441A7600BF0C3791
:100A9C00BD4680BC704700BF00E100E000ED00E007
:100AAC0080B489B000AFF860B9607A60FB6803F07D
:100ABC000703FB61FB69C3F10703042B28BF042365
:100ACC00BB61FB690433062B02D9FB69033B00E0D5
:100ADC0000237B614FF0FF32BB6902FA03F3DA4368
:100AEC00BB681A407B699A404FF0FF317B6901FA71
:100AFC0003F3D9437B680B40134318462437BD4698
:100B0C0080BC704780B582B000AF78607B68013BD9
:100B1C00B3F1807F01D301230FE00A4A7B68013BCC
:100B2C0053600F214FF0FF30FFF790FF054B002271
:100B3C009A60044B07221A60002318460837BD46FA
:100B4C0080BD00BF10E000E080B582B000AF7860DF
:100B5C007868FFF72DFF00BF0837BD4680BD80B514
:100B6C0086B000AF0346B9607A60FB7300237B61EB
:100B7C00FFF742FF78617A68B9687869FFF790FFF0
:100B8C00024697F90F3011461846FFF75FFF00BF7A
:100B9C001837BD4680BD80B582B000AF0346FB71EF
:100BAC0097F907301846FFF735FF00BF0837BD46E9
:100BBC0080BD80B582B000AF78607868FFF7A2FF87
:100BCC00034618460837BD4680BD000080B48BB084
:100BDC0000AF7860396000237B6200233B6269E1DF
:100BEC0001227B6A02FA03F3FB613B681B68FA691A
:100BFC001340BB61BA69FB699A4240F058813B686B
:100C0C005B689A4A93425ED0984A934275D8984A48
:100C1C00934258D0964A93426FD8964A934252D0F8
:100C2C00944A934269D8944A93424CD0924A934244
:100C3C0063D8924A934246D0904A93425DD8122B85
:100C4C002AD8122B59D801A252F823F0D30C000841
:100C5C00AD0C0008BF0C0008010D0008070D0008C2
:100C6C00070D0008070D0008070D0008070D000808
:100C7C00070D0008070D0008070D0008070D0008F8
:100C8C00070D0008070D0008070D0008070D0008E8
:100C9C00B50C0008C90C0008794A934213D02CE01B
:100CAC003B68DB683B6229E03B68DB6804333B62F2
:100CBC0024E03B68DB6808333B621FE03B68DB6881
:100CCC000C333B621AE03B689B68002B02D1042377
:100CDC003B6213E03B689B68012B05D108233B6208
:100CEC007B68FA691A6109E008233B627B68FA6940
:100CFC005A6103E000233B6200E000BFBB69FF2B9D
:100D0C0001D87B6801E07B6804337B61BB69FF2BF6
:100D1C0002D87B6A9B0002E07B6A083B9B003B612C
:100D2C007B691A680F213B6901FA03F3DB431A4014
:100D3C00396A3B6901FA03F31A437B691A603B6811
:100D4C005B6803F08053002B00F0B1804D4B9B6926
:100D5C004C4A43F0010393614A4B9B6903F0010336
:100D6C00BB60BB68484A7B6A9B08023352F823304D
:100D7C00FB607B6A03F003039B000F2202FA03F370
:100D8C00DB43FA681340FB607B68404A934213D004
:100D9C007B683F4A93420DD07B683E4A934207D012
:100DAC007B683D4A934201D1032306E0042304E00F
:100DBC00022302E0012300E000237A6A02F003021E
:100DCC0092009340FA681343FB602F497B6A9B089F
:100DDC000233FA6841F823203B685B6803F4801304
:100DEC00002B06D02D4B9A682C49BB6913438B60A2
:100DFC0006E02A4B9A68BB69DB43284913408B6099
:100E0C003B685B6803F40013002B06D0234BDA68B5
:100E1C002249BB691343CB6006E0204BDA68BB69FF
:100E2C00DB431E491340CB603B685B6803F4003323
:100E3C00002B06D0194B5A681849BB6913434B60F9
:100E4C0006E0164B5A68BB69DB43144913404B60F0
:100E5C003B685B6803F48033002B21D00F4B1A687E
:100E6C000E49BB6913430B6021E000BF0000321038
:100E7C0000003110000022100000211000001210A0
:100E8C000000111000100240000001400008014059
:100E9C00000C01400010014000140140000401400E
:100EAC000B4B1A68BB69DB43094913400B607B6A27
:100EBC0001337B623B681A687B6A22FA03F3002BCE
:100ECC007FF48EAE00BF00BF2C37BD4680BC704790
:100EDC000004014080B483B000AF78600B467B8087
:100EEC0013467B707B78002B03D07A887B681A6161
:100EFC0003E07B881A047B681A6100BF0C37BD467F
:100F0C0080BC704780B584B000AF78607B68002BE4
:100F1C0001D101232BE17B6893F83D30DBB2002B30
:100F2C0006D17B68002283F83C207868FFF7F6FB3B
:100F3C007B68242283F83D207B681B681A687B68D9
:100F4C001B6822F001021A607B681B681A687B68B8
:100F5C001B6842F400421A607B681B681A687B6845
:100F6C001B6822F400421A6001F032F8F8607B68CA
:100F7C005B68814A934207D8FB68804A934294BFCE
:100F8C0001230023DBB206E0FB687D4A934294BF49
:100F9C0001230023DBB2002B01D00123E7E0FB6827
:100FAC00784AA2FB03239B0CBB607B681B685B68C5
:100FBC0023F03F017B681B68BA680A435A607B6860
:100FCC001B681B6A23F03F017B685B686A4A93428B
:100FDC0002D8BB68013309E0BB684FF4967202FB80
:100FEC0003F3694AA2FB03239B0901337A68126855
:100FFC000B4313627B681B68DB6923F44F4222F0BE
:10100C00FF027B685B685C498B4219D8FB68591EF0
:10101C007B685B685B00B1FBF3F3591C40F6FC7317
:10102C000B40002B0AD0FB68591E7B685B685B0089
:10103C00B1FBF3F30133C3F30B0351E004234FE093
:10104C007B689B68002B11D1FB68581E7B68596824
:10105C000B465B000B44B0FBF3F30133C3F30B0300
:10106C00002B0CBF01230023DBB212E0FB68581EDF
:10107C007B6859680B469B000B4499000B44B0FBF2
:10108C00F3F30133C3F30B03002B0CBF0123002339
:10109C00DBB2002B01D0012322E07B689B68002B84
:1010AC000ED1FB68581E7B6859680B465B000B44DD
:1010BC00B0FBF3F30133C3F30B0343F400430FE032
:1010CC00FB68581E7B6859680B469B000B449900C3
:1010DC000B44B0FBF3F30133C3F30B0343F4404372
:1010EC00796809681343CB617B681B681B6823F024
:1010FC00C0017B68DA697B681B6A1A437B681B68D2
:10110C000A431A607B681B689B6823F4034323F033
:10111C00FF037A6811697A68D26811437A68126899
:10112C000B4393607B681B68DB6823F0FF017B68D3
:10113C005A697B689B691A437B681B680A43DA60AF
:10114C007B681B681A687B681B6842F001021A6096
:10115C007B6800221A647B68202283F83D207B6820
:10116C0000221A637B68002283F83E200023184675
:10117C001037BD4680BD00BFA08601007F841E00D5
:10118C00FF083D0083DE1B43D34D621080B588B051
:10119C0002AFF8607A601A460B467B8113463B819E
:1011AC00FFF7D8FB7861FB6893F83D30DBB2202B5E
:1011BC0040F0E0807B690093192301227049F868A4
:1011CC0000F064F90346002B01D00223D3E0FB6846
:1011DC0093F83C30012B01D10223CCE0FB680122B7
:1011EC0083F83C20FB681B681B6803F00103012B90
:1011FC0007D0FB681B681A68FB681B6842F0010289
:10120C001A60FB681B681A68FB681B6822F4006292
:10121C001A60FB68212283F83D20FB68102283F8BA
:10122C003E20FB6800221A64FB687A685A62FB68ED
:10123C003A895A85FB685B8D9AB2FB681A85FB6804
:10124C00504ADA6279897B693A6AF86800F09CF84E
:10125C000346002B01D001238DE000233B61FB688A
:10126C001B685B693B61FB681B689B693B613B6965
:10127C0066E07A69396AF86800F022FA0346002BB6
:10128C000DD0FB681B6C042B07D1FB681B681A681C
:10129C00FB681B6842F400721A6001236BE0FB6868
:1012AC005B6A1A78FB681B681A61FB685B6A5A1CDC
:1012BC00FB685A62FB685B8D9BB2013B9AB2FB6880
:1012CC005A85FB681B8D013B9AB2FB681A85FB683B
:1012DC001B685B6903F00403042B1BD1FB681B8D9B
:1012EC00002B17D0FB685B6A1A78FB681B681A61C5
:1012FC00FB685B6A5A1CFB685A62FB685B8D9BB28D
:10130C00013B9AB2FB685A85FB681B8D013B9AB274
:10131C00FB681A857A69396AF86800F019FA03468D
:10132C00002B0DD0FB681B6C042B07D1FB681B68D2
:10133C001A68FB681B6842F400721A6001231AE0F9
:10134C00FB681B8D002B94D1FB681B681A68FB682B
:10135C001B6842F400721A60FB68202283F83D205F
:10136C00FB68002283F83E20FB68002283F83C20B7
:10137C00002300E0022318461837BD4680BD00BF8D
:10138C00020010000000FFFF80B588B002AFF860CB
:10139C007A603B600B467B81FB68DB6A7B617B6917
:1013AC00082B06D07B69012B03D07B6913F5803F9A
:1013BC0008D1FB681B681A68FB681B6842F48072D2
:1013CC001A600BE0FB681B6B122B07D1FB681B68C8
:1013DC001A68FB681B6842F480721A603B680093C1
:1013EC007B6800224FF00111F86800F04FF80346BB
:1013FC00002B0DD0FB681B681B6803F48073B3F5DE
:10140C00807F03D1FB684FF400721A64032335E02C
:10141C00FB681B69B3F5804F08D17B89DBB21A4698
:10142C00FB681B6802F0FE021A611BE07B89DB1172
:10143C00DBB203F00603DBB263F00F03DAB2FB6836
:10144C001B681A613B687A680E49F86800F098F8D6
:10145C000346002B01D0012310E07B89DAB2FB6834
:10146C001B681A613B687A680749F86800F088F8CD
:10147C000346002B01D0012300E000231846183747
:10148C00BD4680BD080001000200010080B584B09B
:10149C0000AFF860B9603B601346FB7148E03B68F5
:1014AC00B3F1FF3F44D0FFF755FA0246BB69D31A9C
:1014BC003A689A4202D33B68002B39D1BB681B0CAB
:1014CC00DBB2012B0DD1FB681B685B69DA43BB688F
:1014DC0013409BB2002B0CBF01230023DBB21A4636
:1014EC000CE0FB681B689B69DA43BB6813409BB23A
:1014FC00002B0CBF01230023DBB21A46FB799A4266
:10150C0016D1FB6800221A63FB68202283F83D2069
:10151C00FB68002283F83E20FB681B6C43F0200222
:10152C00FB681A64FB68002283F83C20012323E04B
:10153C00BB681B0CDBB2012B0DD1FB681B685B6914
:10154C00DA43BB6813409BB2002B0CBF0123002372
:10155C00DBB21A460CE0FB681B689B69DA43BB687C
:10156C0013409BB2002B0CBF01230023DBB21A46A5
:10157C00FB799A4293D0002318461037BD4680BDA4
:10158C0080B584B000AFF860B9607A603B6071E000
:10159C00FB681B685B6903F48063B3F5806F23D130
:1015AC00FB681B681A68FB681B6842F400721A60BF
:1015BC00FB681B686FF480625A61FB6800221A6337
:1015CC00FB68202283F83D20FB68002283F83E2034
:1015DC00FB681B6C43F00402FB681A64FB68002276
:1015EC0083F83C20012367E07B68B3F1FF3F41D0D7
:1015FC00FFF7B0F902463B68D31A7A689A4202D3D5
:10160C007B68002B36D1BB681B0CDBB2012B0CD1D9
:10161C00FB681B685B69DA43BB6813409BB2002B09
:10162C0014BF01230023DBB20BE0FB681B689B6932
:10163C00DA43BB6813409BB2002B14BF0123002379
:10164C00DBB2002B16D0FB6800221A63FB68202249
:10165C0083F83D20FB68002283F83E20FB681B6C5E
:10166C0043F02002FB681A64FB68002283F83C20DC
:10167C00012321E0BB681B0CDBB2012B0CD1FB68F6
:10168C001B685B69DA43BB6813409BB2002B14BF29
:10169C0001230023DBB20BE0FB681B689B69DA4378
:1016AC00BB6813409BB2002B14BF01230023DBB299
:1016BC00002B7FF46DAF002318461037BD4680BD5C
:1016CC0080B584B000AFF860B9607A6034E0F86837
:1016DC0000F086F80346002B01D0012334E0BB68F0
:1016EC00B3F1FF3F28D0FFF735F902467B68D31AD8
:1016FC00BA689A4202D3BB68002B1DD1FB681B68E9
:10170C005B6903F08003802B16D0FB6800221A6300
:10171C00FB68202283F83D20FB68002283F83E20E2
:10172C00FB681B6C43F02002FB681A64FB68002208
:10173C0083F83C20012307E0FB681B685B6903F01E
:10174C008003802BC3D1002318461037BD4680BDC3
:10175C0080B584B000AFF860B9607A6034E0F868A6
:10176C0000F03EF80346002B01D0012334E0BB68A7
:10177C00B3F1FF3F28D0FFF7EDF802467B68D31A90
:10178C00BA689A4202D3BB68002B1DD1FB681B6858
:10179C005B6903F00403042B16D0FB6800221A6368
:1017AC00FB68202283F83D20FB68002283F83E2052
:1017BC00FB681B6C43F02002FB681A64FB68002278
:1017CC0083F83C20012307E0FB681B685B6903F08E
:1017DC000403042BC3D1002318461037BD4680BD2B
:1017EC0080B483B000AF78607B681B685B6903F4DE
:1017FC008063B3F5806F1BD17B681B686FF48062CC
:10180C005A617B6800221A637B68202283F83D2092
:10181C007B68002283F83E207B681B6C43F004023B
:10182C007B681A647B68002283F83C20012300E06B
:10183C00002318460C37BD4680BC704780B586B077
:10184C0000AF78607B68002B01D1012372E27B68CA
:10185C001B6803F00103002B00F08780924B5B6840
:10186C0003F00C03042B0CD08F4B5B6803F00C03C0
:10187C00082B12D18C4B5B6803F48033B3F5803F9B
:10188C000BD1894B1B6803F40033002B6CD07B68A5
:10189C005B68002B68D101234CE27B685B68B3F575
:1018AC00803F06D1804B1B687F4A43F48033136022
:1018BC002EE07B685B68002B0CD17B4B1B687A4A53
:1018CC0023F480331360784B1B68774A23F480230E
:1018DC0013601DE07B685B68B3F5A02F0CD1724BD5
:1018EC001B68714A43F4802313606F4B1B686E4A6C
:1018FC0043F4803313600BE06B4B1B686A4A23F490
:10190C0080331360684B1B68674A23F48023136091
:10191C007B685B68002B13D0FFF71CF8386108E07C
:10192C00FFF718F802463B69D31A642B01D903233D
:10193C0000E25D4B1B6803F40033002BF0D014E085
:10194C00FFF708F8386108E0FFF704F802463B6936
:10195C00D31A642B01D90323ECE1534B1B6803F41A
:10196C000033002BF0D100E000BF7B681B6803F054
:10197C000203002B63D04C4B5B6803F00C03002B71
:10198C000BD0494B5B6803F00C03082B1CD1464B66
:10199C005B6803F48033002B16D1434B1B6803F0B8
:1019AC000203002B05D07B681B69012B01D001239E
:1019BC00C0E13D4B1B6823F0F8027B685B69DB00E0
:1019CC00394913430B603AE07B681B69002B20D02C
:1019DC00364B01221A60FEF7BDFF386108E0FEF7B6
:1019EC00B9FF02463B69D31A022B01D90323A1E1AB
:1019FC002D4B1B6803F00203002BF0D02A4B1B6805
:101A0C0023F0F8027B685B69DB00274913430B600A
:101A1C0015E0264B00221A60FEF79CFF386108E0A7
:101A2C00FEF798FF02463B69D31A022B01D9032318
:101A3C0080E11D4B1B6803F00203002BF0D17B6887
:101A4C001B6803F00803002B3AD07B689B69002BC2
:101A5C0019D0174B01221A60FEF77CFF386108E0A1
:101A6C00FEF778FF02463B69D31A022B01D90323F8
:101A7C0060E10D4B5B6A03F00203002BF0D00120F8
:101A8C0000F0BAFA1CE00A4B00221A60FEF762FF63
:101A9C0038610FE0FEF75EFF02463B69D31A022B5A
:101AAC0008D9032346E100BF001002400000424267
:101ABC0080044242924B5B6A03F00203002BE9D193
:101ACC007B681B6803F00403002B00F0A680002346
:101ADC00FB758B4BDB6903F08053002B0DD1884BCE
:101AEC00DB69874A43F08053D361854BDB6903F094
:101AFC008053BB60BB680123FB75824B1B6803F4EE
:101B0C008073002B18D17F4B1B687E4A43F4807383
:101B1C001360FEF71FFF386108E0FEF71BFF02465B
:101B2C003B69D31A642B01D9032303E1754B1B6862
:101B3C0003F48073002BF0D07B68DB68012B06D19B
:101B4C006F4B1B6A6E4A43F0010313622DE07B68F6
:101B5C00DB68002B0CD16A4B1B6A694A23F001032A
:101B6C001362674B1B6A664A23F0040313621CE082
:101B7C007B68DB68052B0CD1614B1B6A604A43F018
:101B8C00040313625E4B1B6A5D4A43F0010313624C
:101B9C000BE05B4B1B6A5A4A23F001031362584B50
:101BAC001B6A574A23F0040313627B68DB68002B23
:101BBC0015D0FEF7CFFE38610AE0FEF7CBFE0246E9
:101BCC003B69D31A41F28832934201D90323B1E025
:101BDC004B4B1B6A03F00203002BEED014E0FEF714
:101BEC00B9FE38610AE0FEF7B5FE02463B69D31A2E
:101BFC0041F28832934201D903239BE0404B1B6A8C
:101C0C0003F00203002BEED1FB7D012B05D13C4BE5
:101C1C00DB693B4A23F08053D3617B68DB69002B83
:101C2C0000F08780364B5B6803F00C03082B61D007
:101C3C007B68DB69022B46D1334B00221A60FEF71E
:101C4C0089FE386108E0FEF785FE02463B69D31A2F
:101C5C00022B01D903236DE0294B1B6803F00073A1
:101C6C00002BF0D17B681B6AB3F5803F08D1244B65
:101C7C005B6823F400327B689B68214913434B60FB
:101C8C001F4B5B6823F474127B68196A7B685B6A70
:101C9C000B431B4913434B601B4B01221A60FEF78D
:101CAC0059FE386108E0FEF755FE02463B69D31A2F
:101CBC00022B01D903233DE0114B1B6803F0007389
:101CCC00002BF0D035E0104B00221A60FEF742FEDC
:101CDC00386108E0FEF73EFE02463B69D31A022B40
:101CEC0001D9032326E0064B1B6803F00073002B7D
:101CFC00F0D11EE07B68DB69012B07D1012319E0D1
:101D0C000010024000700040600042420B4B5B68C8
:101D1C00FB60FB6803F480327B681B6A9A4206D135
:101D2C00FB6803F470127B685B6A9A4201D0012352
:101D3C0000E0002318461837BD4680BD0010024055
:101D4C0080B584B000AF786039607B68002B01D11E
:101D5C000123D0E06A4B1B6803F007033A689A42F0
:101D6C0010D9674B1B6823F0070265493B68134386
:101D7C000B60634B1B6803F007033A689A4201D06F
:101D8C000123B8E07B681B6803F00203002B20D012
:101D9C007B681B6803F00403002B05D0594B5B6870
:101DAC00584A43F4E06353607B681B6803F00803F4
:101DBC00002B05D0534B5B68524A43F4605353607D
:101DCC00504B5B6823F0F0027B689B684D491343D2
:101DDC004B607B681B6803F00103002B40D07B68D1
:101DEC005B68012B07D1474B1B6803F40033002BB6
:101DFC0015D101237FE07B685B68022B07D1414B37
:101E0C001B6803F00073002B09D1012373E03D4BD9
:101E1C001B6803F00203002B01D101236BE0394B4B
:101E2C005B6823F003027B685B68364913434B60A5
:101E3C00FEF790FDF8600AE0FEF78CFD0246FB68A9
:101E4C00D31A41F28832934201D9032353E02D4B2C
:101E5C005B6803F00C027B685B689B009A42EBD1D9
:101E6C00274B1B6803F007033A689A4210D2244BA5
:101E7C001B6823F0070222493B6813430B60204B7D
:101E8C001B6803F007033A689A4201D0012332E041
:101E9C007B681B6803F00403002B08D0194B5B68AC
:101EAC0023F4E0627B68DB68164913434B607B6864
:101EBC001B6803F00803002B09D0124B5B6823F45A
:101ECC0060527B681B69DB000E4913434B6000F0CA
:101EDC0021F802460B4B5B681B0903F00F030A4900
:101EEC00CB5C22FA03F3094A1360094B1B681846B2
:101EFC00FEF7EEFC002318461037BD4680BD00BF30
:101F0C0000200240001002401C400008000000208D
:101F1C000400002080B487B000AF0023FB600023D6
:101F2C00BB6000237B6100237B6000233B611E4B65
:101F3C005B68FB60FB6803F00C03042B02D0082BDE
:101F4C0003D027E0194B3B6127E0FB689B0C03F0A7
:101F5C000F03174AD35C7B60FB6803F48033002BC0
:101F6C0010D0114B5B685B0C03F00103114AD35C7E
:101F7C00BB607B680D4A03FB02F2BB68B2FBF3F358
:101F8C007B6104E07B680C4A02FB03F37B617B6999
:101F9C003B6102E0054B3B6100BF3B6918461C37B7
:101FAC00BD4680BC704700BF0010024000127A0092
:101FBC00344000084440000800093D0080B400AFE4
:101FCC00024B1B681846BD4680BC704700000020C1
:101FDC0080B500AFFFF7F2FF0246054B5B681B0AAA
:101FEC0003F007030349CB5C22FA03F3184680BDC8
:101FFC00001002402C40000880B485B000AF78601F
:10200C000A4B1B680A4AA2FB03235B0A7A6802FB91
:10201C0003F3FB6000BFFB685A1EFA60002BF9D17A
:10202C0000BF00BF1437BD4680BC704700000020C5
:10203C00D34D621080B582B000AF78607B68002B06
:10204C0001D1012341E07B6893F83D30DBB2002BDA
:10205C0006D17B68002283F83C207868FEF79CFB55
:10206C007B68022283F83D207B681A687B68043306
:10207C001946104600F012FA7B68012283F84620BC
:10208C007B68012283F83E207B68012283F83F2085
:10209C007B68012283F840207B68012283F8412071
:1020AC007B68012283F842207B68012283F843205D
:1020BC007B68012283F844207B68012283F8452049
:1020CC007B68012283F83D20002318460837BD4663
:1020DC0080BD80B584B000AF78607B681B68DB681E
:1020EC00FB607B681B681B69BB60BB6803F0020369
:1020FC00002B20D0FB6803F00203002B1BD07B6865
:10210C001B686FF002021A617B6801221A777B68E8
:10211C001B689B6903F00303002B03D0786800F065
:10212C00A1F905E0786800F094F9786800F0A3F95B
:10213C007B6800221A77BB6803F00403002B20D0C5
:10214C00FB6803F00403002B1BD07B681B686FF04B
:10215C0004021A617B6802221A777B681B689B69F0
:10216C0003F44073002B03D0786800F07BF905E092
:10217C00786800F06EF9786800F07DF97B680022D1
:10218C001A77BB6803F00803002B20D0FB6803F020
:10219C000803002B1BD07B681B686FF008021A61C8
:1021AC007B6804221A777B681B68DB6903F00303E6
:1021BC00002B03D0786800F055F905E0786800F042
:1021CC0048F9786800F057F97B6800221A77BB68E9
:1021DC0003F01003002B20D0FB6803F01003002B3E
:1021EC001BD07B681B686FF010021A617B68082299
:1021FC001A777B681B68DB6903F44073002B03D0F0
:10220C00786800F02FF905E0786800F022F978681A
:10221C0000F031F97B6800221A77BB6803F00103E8
:10222C00002B0CD0FB6803F00103002B07D07B685C
:10223C001B686FF001021A61786800F001F9BB6845
:10224C0003F08003002B0CD0FB6803F08003002B01
:10225C0007D07B681B686FF080021A61786800F009
:10226C0088FABB6803F04003002B0CD0FB6803F02A
:10227C004003002B07D07B681B686FF040021A618B
:10228C00786800F001F9BB6803F02003002B0CD038
:10229C00FB6803F02003002B07D07B681B686FF0F2
:1022AC0020021A61786800F05BFA00BF1037BD4657
:1022BC0080BD80B584B000AF786039600023FB73BB
:1022CC007B6893F83C30012B01D10223B4E07B688E
:1022DC00012283F83C207B68022283F83D207B6836
:1022EC001B689B68BB60BB6823F07703BB60BB6853
:1022FC0023F47F43BB607B681B68BA689A603B68B9
:10230C001B68B3F5005F3ED0B3F5005F00F2878029
:10231C00B3F5805F00F08680B3F5805F7FD8702BBB
:10232C001AD0702B7BD8602B50D0602B77D8502BC9
:10233C003CD0502B73D8402B58D0402B6FD8302B1F
:10234C0064D0302B6BD8202B60D0202B67D8002B7F
:10235C005CD0102B5AD062E07B6818683B68996897
:10236C003B685A683B68DB6800F07DF97B681B684A
:10237C009B68BB60BB6843F07703BB607B681B68E2
:10238C00BA689A604FE07B6818683B6899683B684C
:10239C005A683B68DB6800F066F97B681B689A68D2
:1023AC007B681B6842F480429A603CE07B6818684A
:1023BC003B6859683B68DB681A4600F0DDF87B68BF
:1023CC001B685021184600F034F92CE07B68186823
:1023DC003B6859683B68DB681A4600F0FBF87B6881
:1023EC001B686021184600F024F91CE07B68186813
:1023FC003B6859683B68DB681A4600F0BDF87B689F
:10240C001B684021184600F014F90CE07B681A6830
:10241C003B681B681946104600F00BF903E00123DA
:10242C00FB7300E000BF7B68012283F83D207B68D2
:10243C00002283F83C20FB7B18461037BD4680BD3C
:10244C0080B483B000AF786000BF0C37BD4680BC51
:10245C00704780B483B000AF786000BF0C37BD46C6
:10246C0080BC704780B483B000AF786000BF0C377D
:10247C00BD4680BC704780B483B000AF786000BFAD
:10248C000C37BD4680BC704780B483B000AF786019
:10249C0000BF0C37BD4680BC7047000080B485B0CF
:1024AC0000AF786039607B681B68FB607B682F4AE3
:1024BC0093420BD07B68B3F1804F07D07B682C4ADA
:1024CC00934203D07B682B4A934208D1FB6823F0DC
:1024DC007003FB603B685B68FA681343FB607B68C6
:1024EC00224A93420BD07B68B3F1804F07D07B68B4
:1024FC001F4A934203D07B681E4A934208D1FB6863
:10250C0023F44073FB603B68DB68FA681343FB60A1
:10251C00FB6823F080023B685B691343FB607B68BC
:10252C00FA681A603B689A687B68DA623B681A68DA
:10253C007B689A627B680D4A934203D13B681A69A7
:10254C007B681A637B6801225A617B681B6903F004
:10255C000103002B05D07B681B6923F001027B680B
:10256C001A6100BF1437BD4680BC7047002C014077
:10257C00000400400008004080B487B000AFF86051
:10258C00B9607A60FB681B6A7B61FB681B6A23F08D
:10259C000102FB681A62FB689B693B613B6923F093
:1025AC00F0033B617B681B013A6913433B617B6918
:1025BC0023F00A037B617A69BB6813437B61FB6878
:1025CC003A699A61FB687A691A6200BF1C37BD468A
:1025DC0080BC704780B487B000AFF860B9607A6097
:1025EC00FB681B6A7B61FB681B6A23F01002FB68AB
:1025FC001A62FB689B693B613B6923F470433B6146
:10260C007B681B033A6913433B617B6923F0A0038E
:10261C007B61BB681B017A6913437B61FB683A6978
:10262C009A61FB687A691A6200BF1C37BD4680BC90
:10263C00704780B485B000AF786039607B689B6868
:10264C00FB60FB6823F07003FB603A68FB68134384
:10265C0043F00703FB607B68FA689A6000BF14378D
:10266C00BD4680BC704780B487B000AFF860B960DD
:10267C007A603B60FB689B687B617B6923F47F43DA
:10268C007B613B681A027B681A43BB6813437A6907
:10269C0013437B61FB687A699A6000BF1C37BD46A7
:1026AC0080BC704780B485B000AF786039607B68BF
:1026BC0093F83C30012B01D1022346E07B680122C8
:1026CC0083F83C207B68022283F83D207B681B68E2
:1026DC005B68FB607B681B689B68BB60FB6823F0D6
:1026EC007003FB603B681B68FA681343FB607B68F4
:1026FC001B68FA685A607B681B68164A93420ED0B6
:10270C007B681B68B3F1804F09D07B681B68124A49
:10271C00934204D07B681B68104A93420CD1BB686F
:10272C0023F08003BB603B685B68BA681343BB60F3
:10273C007B681B68BA689A607B68012283F83D202D
:10274C007B68002283F83C20002318461437BD46D2
:10275C0080BC7047002C0140000400400008004081
:10276C0080B483B000AF786000BF0C37BD4680BC2E
:10277C00704780B483B000AF786000BF0C37BD46A3
:10278C0080BC704703460244934200D1704703F863
:10279C00011BF9E770B500260C4D0D4C641BA41001
:1027AC00A64209D100F028F800260A4D0A4C641BF9
:1027BC00A410A64205D170BD55F8043B98470136CC
:1027CC00EEE755F8043B98470136F2E7484000081D
:1027DC0048400008484000084C4000080A44914218
:1027EC0000F1FF3300D1704710B511F8014B914245
:1027FC0003F8014FF9D110BDF8B500BFF8BC08BC07
:10280C009E467047F8B500BFF8BC08BC9E467047A2
:10281C0000000000000000000000000000000000AC
:10282C00000000000000000000000000000000009C
:10283C00000000000000000000000000000000008C
:10284C00000000000000000000000000000000007C
:10285C00000000000000000000000000000000006C
:10286C00000000000000000000000000000000005C
:10287C00000000000000000000000000000000004C
:10288C00000000000000000000000000000000003C
:10289C00000000000000000000000000000000002C
:1028AC00000000000000000000000000000000001C
:1028BC000080C0C0C0C0E0C0C0C0C080000000002C
:1028CC0000000000000000000000000000000000FC
:1028DC0000000000000000000000000000000000EC
:1028EC00000000000080C0C0C0C0E0C0C0C0C080FC
:1028FC0000000000000000000000000000000000CC
:10290C0000000000000000000000000000000000BB
:10291C0000000000000000000000000000000000AB
:10292C00000000000000000000000000E0F8FCFFC8
:10293C00FFFFFFFFFFFFFFFFFFFFFFFFFFFFFCF8A5
:10294C00E00000000000000000000000000000009B
:10295C00000000000000000000000000000000006B
:10296C00E0F8FCFFFFFFFFFFFFFFFFFFFFFFFFFF94
:10297C00FFFFFCF8E0000000000000000000000079
:10298C00000000000000000000000000000000003B
:10299C00000000000000000000000000000000002B
:1029AC00000000000000000000000004FFFFFFFF1B
:1029BC00FFFFFFFFFFFFFFFFFFFFFFFFFFFFFFFF1B
:1029CC00FF040000000000000000000000000000F8
:1029DC0000000000000000000000000000000004E7
:1029EC00FFFFFFFFFFFFFFFFFFFFFFFFFFFFFFFFEB
:1029FC00FFFFFFFFFF0400000000000000000000CC
:102A0C0000000000000000000000000000000000BA
:102A1C0000000000000000000000000000000000AA
:102A2C000000000000000000000000000003071F71
:102A3C001F3F7F7F7F7FFF7F7F7F7F3F1F1F0703AE
:102A4C00000000000000000000000000000000007A
:102A5C00000000000000000000000000000000006A
:102A6C000003071F1F3F7F7F7F7FFF7F7F7F7F3F9D
:102A7C001F1F070300000000000000000000000002
:102A8C00000000000000000000000000000000003A
:102A9C00000000000000000000000000000000002A
:102AAC00000000000000000000000000000000001A
:102ABC00000000000000000000000000000000000A
:102ACC0000000000808080808080808080808080FA
:102ADC00808080808080808080808080800000006A
:102AEC0000000000000000000000000000000000DA
:102AFC0000000000000000000000000000000000CA
:102B0C0000000000000000000000000000000000B9
:102B1C0000000000000000000000000000000000A9
:102B2C000000000000000000000000000000000099
:102B3C000000000000000000000000000000000089
:102B4C000000000003030303030303030303030355
:102B5C000303030303030303030303030300000042
:102B6C000000000000000000000000000000000059
:102B7C000000000000000000000000000000000049
:102B8C000000000000000000000000000000000039
:102B9C000000000000000000000000000000000029
:102BAC000000000000000000000000000000000019
:102BBC000000000000000000000000000000000009
:102BCC0000000000000000000000000000000000F9
:102BDC0000000000000000000000000000000000E9
:102BEC0000000000000000000000000000000000D9
:102BFC0000000000000000000000000000000000C9
:102C0C0000000000000000000000000000000000B8
:102C1C0000000000000000000000000000000000A8
:102C2C000000000000000000000000000000000098
:102C3C000000000000000000000000000000000088
:102C4C000000000000000000000000000000000078
:102C5C000000000000000000000000000000000068
:102C6C000000000000000000000000000000000058
:102C7C000000000000000000000000000000000048
:102C8C000000000000000000000000000000000038
:102C9C000000000000000000000000000000000028
:102CAC000000000000000000000000000000000018
:102CBC000000000000000000000000000000000008
:102CCC0000000000000000000000000000000000F8
:102CDC0000000000000000000000000000000000E8
:102CEC0000000000000000000000000000000000D8
:102CFC0000000000000000000000000000000000C8
:102D0C0000000000000000000000000000000000B7
:102D1C0000000000000000000000000000000000A7
:102D2C000000000000000000000000003870E0C04F
:102D3C00C08080000000000000008080C0C0E070F7
:102D4C00380000000000000000000000000000003F
:102D5C000000000000000000000000000000000067
:102D6C003870E0C0C080800000000000000080804F
:102D7C00C0C0E0703800000000000000000000003F
:102D8C000000000000000000000000000000000037
:102D9C000000000000000000000000000000000027
:102DAC000000000000000000000000000000000116
:102DBC0001030307070707070707030301010000C7
:102DCC0000000000000000000000000000000000F7
:102DDC0000000000000000000000000000000000E7
:102DEC000000000101030307070707070707030398
:102DFC0001010000000000000000000000000000C5
:102E0C0000000000000000000000000000000000B6
:102E1C0000000000000000000000000000000000A6
:102E2C000000000000000000000000000000000096
:102E3C000000000000000000000000000000000086
:102E4C000000000000000000000000000000000076
:102E5C000000000000000000000000000000000066
:102E6C000000000000000000000000000000000056
:102E7C000000000000000000000000000000000046
:102E8C000000000000000000000000000000000036
:102E9C000000000000000000000000000000000026
:102EAC000000000000000000000000000000000016
:102EBC000000000000000000000000000000000006
:102ECC0000000000000080C0C0E07070703838381E
:102EDC0038383838707070E0C0C0800000000000D6
:102EEC0000000000000000000000000000000000D6
:102EFC0000000000000000000000000000000000C6
:102F0C0000000000000000000000000000000000B5
:102F1C0000000000000000000000000000000000A5
:102F2C000000000000000000000000000000000095
:102F3C000000000000000000000000000000000085
:102F4C000000381C0E070301010000000000000007
:102F5C000000000000000000010103070E1C3800F7
:102F6C000000000000000000000000000000000055
:102F7C000000000000000000000000000000000045
:102F8C000000000000000000000000000000000035
:102F9C000000000000000000000000000000000025
:102FAC000000000000000000000000000000000015
:102FBC000000000000000000000000000000000005
:102FCC0000000000000000000000000000000000F5
:102FDC0000000000000000000000000000000000E5
:102FEC0000000000000000000000000000000000D5
:102FFC0000000000000000000000000000000000C5
:10300C0000000000000000000000000000000000B4
:10301C0000000000000000000000000000000000A4
:10302C000000000000000000000000000080800094
:10303C000000000000000000000000000000000084
:10304C000000000000000000000000000000000074
:10305C000000000000000000000000000000000064
:10306C000000000000000000000000000000000054
:10307C000000808000000000000000000000000044
:10308C000000000000000000000000000000000034
:10309C000000000000000000000000000000000024
:1030AC00000000000000000000000000000101030F
:1030BC000383C6C6C6CCECCCD8D8D8B03030606050
:1030CC0000000000000000000000000000000000F4
:1030DC0000000000000000000000000000000000E4
:1030EC000060603030B0D8D8D8CCECCCC6C6C68323
:1030FC0003030101000000000000000000000000BC
:10310C0000000000000000000000000000000000B3
:10311C0000000000000000000000000000000000A3
:10312C00000000000000000000000000E0F8FCFFC0
:10313C00FFFFFFFFFFFFFFFFFFFFFFFFFFFFFCF89D
:10314C00E000000000000000000000000000000093
:10315C000000000000000000000000000000000063
:10316C00E0F8FCFFFFFFFFFFFFFFFFFFFFFFFFFF8C
:10317C00FFFFFCF8E0000000000000000000000071
:10318C000000000000000000000000000000000033
:10319C000000000000000000000000000000000023
:1031AC00000000000000000000000004FFFFFFFF13
:1031BC00FFFFFFFFFFFFFFFFFFFFFFFFFFFFFFFF13
:1031CC00FF040000000000000000000000000000F0
:1031DC0000000000000000000000000000000004DF
:1031EC00FFFFFFFFFFFFFFFFFFFFFFFFFFFFFFFFE3
:1031FC00FFFFFFFFFF0400000000000000000000C4
:10320C0000000000000000000000000000000000B2
:10321C0000000000000000000000000000000000A2
:10322C000000000000000000000000000003071F69
:10323C001F3F7F7F7F7FFF7F7F7F7F3F1F1F0703A6
:10324C000000000000000000000000000000000072
:10325C000000000000000000000000000000000062
:10326C000003071F1F3F7F7F7F7FFF7F7F7F7F3F95
:10327C001F1F0703000000000000000000000000FA
:10328C000000000000000000000000000000000032
:10329C000000000000000000000000000000000022
:1032AC000000000000000000000000000000000012
:1032BC000000000000000000FFFF00000000000004
:1032CC0000000070E0C08000000000000000000062
:1032DC000000000000000000000080C0E070000052
:1032EC0000000000000000000000000000000000D2
:1032FC0000000000000000000000000000000000C2
:10330C0000000000000000000000000000000000B1
:10331C0000000000000000000000000000000000A1
:10332C000000000000000000000000000000000091
:10333C00000000000000000001010000000000007F
:10334C000000000000010307070E1C1C1C38383855
:10335C00383838381C1C1C0E07070301000000000D
:10336C000000000000000000000000000000000051
:10337C000000000000000000000000000000000041
:10338C000000000000000000000000000000000031
:10339C000000000000000000000000000000000021
:1033AC000000000000000000000000000000000011
:1033BC000000000000000000000000000000000001
:1033CC0000000000000000000000000000000000F1
:1033DC0000000000000000000000000000000000E1
:1033EC0000000000000000000000000000000000D1
:1033FC0000000000000000000000000000000000C1
:10340C0000000000000000000000000000000000B0
:10341C0000000000000000000000000000000000A0
:10342C00000000000000000000000000006060C010
:10343C00C0808000000000000000000000000000C0
:10344C000000000000000000000000000000000070
:10345C000000000000000000000000000000000060
:10346C000000000000000000000000000000808050
:10347C00C0C0606000000000000000000000000000
:10348C000000000000000000000000000000000030
:10349C000000000000000000000000000000000020
:1034AC000000000000000000000000000000000010
:1034BC0000010103030606060C0C1818303060607E
:1034CC0000000000000000000000000000000000F0
:1034DC0000000000000000000000000000000000E0
:1034EC00006060303018180C0C060606030301014E
:1034FC0000000000000000000000000000000000C0
:10350C0000000000000000000000000000000000AF
:10351C00000000000000000000000000000000009F
:10352C00000000000000000000000000000000008F
:10353C00000000000000000000000000000000007F
:10354C00000000000000000000000000000000006F
:10355C00000000000000000000000000000000005F
:10356C00000000000000000000000000000000004F
:10357C00000000000000000000000000000000003F
:10358C00000000000000000000000000000000002F
:10359C00000000000000000000000000000000001F
:1035AC00000000000000000000000006FEFEFEFE11
:1035BC00FEFEFEFEFEFEFEFEFEFEFEFEFEFEFEFE1F
:1035CC00FE060000000000000000000000000000EB
:1035DC0000000000000000000000000000000006D9
:1035EC00FEFEFEFEFEFEFEFEFEFEFEFEFEFEFEFEEF
:1035FC00FEFEFEFEFE0600000000000000000000C3
:10360C0000000000000000000000000000000000AE
:10361C00000000000000000000000000000000009E
:10362C000000000000000000000000000003071F65
:10363C001F3F7F7F7F7FFF7F7F7F7F3F1F1F0703A2
:10364C00000000000000000000000000000000006E
:10365C00000000000000000000000000000000005E
:10366C000003071F1F3F7F7F7F7FFF7F7F7F7F3F91
:10367C001F1F0703000000000000000000000000F6
:10368C00000000000000000000000000000000002E
:10369C00000000000000000000000000000000001E
:1036AC00000000000000000000000000000000000E
:1036BC0000000000000000000000000000000000FE
:1036CC0000000000000080808080808080808080EE
:1036DC00808080808080808080808000000000005E
:1036EC0000000000000000000000000000000000CE
:1036FC0000000000000000000000000000000000BE
:10370C0000000000000000000000000000000000AD
:10371C00000000000000000000000000000000009D
:10372C00000000000000000000000000000000008D
:10373C00000000000000000000000000000000007D
:10374C00000000000000030303030303030303034F
:10375C00030303030303030303030300000000003C
:10376C00000000000000000000000000000000004D
:10377C00000000000000000000000000000000003D
:10378C00000000000000000000000000000000002D
:10379C00000000000000000000000000000000001D
:1037AC00000000000000000000000000000000000D
:1037BC0000000000000000000000000000000000FD
:1037CC0000000000000000000000000000000000ED
:1037DC0000000000000000000000000000000000DD
:1037EC0000000000000000000000000000000000CD
:1037FC0000000000000000000000000000000000BD
:10380C0000000000000000000000000000000000AC
:10381C00000000000000000000000000000000009C
:10382C00000000000000000000000000000000008C
:10383C00000000000000000000000000000000007C
:10384C00000000000000000000000000000000006C
:10385C00000000000000000000000000000000005C
:10386C00000000000000000000000000000000004C
:10387C00000000000000000000000000000000003C
:10388C00000000000000000000000000000000002C
:10389C00000000000000000000000000000000001C
:1038AC00000000000000000000000000000000000C
:1038BC000080C0C0C0C0E0C0C0C0C080000000001C
:1038CC0000000000000000000000000000000000EC
:1038DC0000000000000000000000000000000000DC
:1038EC00000000000080C0C0C0C0E0C0C0C0C080EC
:1038FC0000000000000000000000000000000000BC
:10390C0000000000000000000000000000000000AB
:10391C00000000000000000000000000000000009B
:10392C00000000000000000000000000E0F8FCFFB8
:10393C00FFFFFFFFFFFFFFFFFFFFFFFFFFFFFCF895
:10394C00E00000000000000000000000000000008B
:10395C00000000000000000000000000000000005B
:10396C00E0F8FCFFFFFFFFFFFFFFFFFFFFFFFFFF84
:10397C00FFFFFCF8E0000000000000000000000069
:10398C00000000000000000000000000000000002B
:10399C00000000000000000000000000000000001B
:1039AC00000000000000000000000004FFFFFFFF0B
:1039BC00FFFFFFFFFFFFFFFFFFFFFFFFFFFFFFFF0B
:1039CC00FF040000000000000000000000000000E8
:1039DC0000000000000000000000000000000004D7
:1039EC00FFFFFFFFFFFFFFFFFFFFFFFFFFFFFFFFDB
:1039FC00FFFFFFFFFF0400000000000000000000BC
:103A0C0000000000000000000000000000000000AA
:103A1C00000000000000000000000000000000009A
:103A2C000000000000000000000000000003071F61
:103A3C001F3F7F7F7F7FFF7F7F7F7F3F1F1F07039E
:103A4C00000000000000000000000000000000006A
:103A5C00000000000000000000000000000000005A
:103A6C000003071F1F3F7F7F7F7FFF7F7F7F7F3F8D
:103A7C001F1F0703000000000000000000000000F2
:103A8C00000000000000000000000000000000002A
:103A9C00000000000000000000000000000000001A
:103AAC00000000000000000000000000000000000A
:103ABC0000000000000000000000000000000000FA
:103ACC000000000000000000000080C060202020EA
:103ADC003020202060C080000000000000000000AA
:103AEC0000000000000000000000000000000000CA
:103AFC0000000000000000000000000000000000BA
:103B0C0000000000000000000000000000000000A9
:103B1C000000000000000000000000000000000099
:103B2C000000000000000000000000000000000089
:103B3C000000000000000000000000000000000079
:103B4C00000000000000000000020F1D30202020AB
:103B5C0060202020301D0F0200000000000000003B
:103B6C000000000000000000000000000000000049
:103B7C000000000000000000000000000000000039
:103B8C000000000000000000000000000000000029
:103B9C000000000000000000000000000000000019
:103BAC000000000000000000000000000000000009
:103BBC0000000000000000000000000000000000F9
:103BCC0000000000000000000000000000000000E9
:103BDC0000000000000000000000000000000000D9
:103BEC0000000000000000000000000000000000C9
:103BFC0000000000000000000000000000000000B9
:103C0C0000000000000000000000000000000000A8
:103C1C000000000000000000000000000000000098
:103C2C000000000000000000000000000080000008
:103C3C000000000000000000000000000000000078
:103C4C000000000000000000000000000000000068
:103C5C000000000000000000000000000000000058
:103C6C000000000000000000000000000000000048
:103C7C0000000080000000000000000000000000B8
:103C8C000000000000000000000000000000000028
:103C9C000000000000000000000000000000000018
:103CAC000000000000000000000000000001030301
:103CBC0006060C0C1818306060C0C0808000000034
:103CCC0000000000000000000000000000000000E8
:103CDC0000000000000000000000000000000000D8
:103CEC00000000008080C0C060603018180C0C060A
:103CFC0006030301000000000000000000000000AB
:103D0C0000000000000000000000000000000000A7
:103D1C000000000000000000000000000000000097
:103D2C000000000000000000000000000000000087
:103D3C000000000000000000000000010103030669
:103D4C000000000000000000000000000000000067
:103D5C000000000000000000000000000000000057
:103D6C000006030301010000000000000000000039
:103D7C000000000000000000000000000000000037
:103D8C000000000000000000000000000000000027
:103D9C000000000000000000000000000000000017
:103DAC00000000000000000000000000E07070380F
:103DBC0038381C1C1C1C1C1C1C1C1C383838707003
:103DCC00E000000000000000000000000000000007
:103DDC0000000000000000000000000000000000D7
:103DEC00E070703838381C1C1C1C1C1C1C1C1C382B
:103DFC0038387070E0000000000000000000000087
:103E0C0000000000000000000000000000000000A6
:103E1C000000000000000000000000000000000096
:103E2C000000000000000000000000000000000086
:103E3C000000000000000000000000000000000076
:103E4C000000000000000000000000000000000066
:103E5C000000000000000000000000000000000056
:103E6C000000000000000000000000000000000046
:103E7C000000000000000000000000000000000036
:103E8C000000000000000000000000000000000026
:103E9C000000000000000000000000000000000016
:103EAC000000000000000000000000000000000006
:103EBC0000000000000000000000000000000000F6
:103ECC00000000000070E0C0C08000000000000096
:103EDC000000000000000080C0C0E0700000000086
:103EEC0000000000000000000000000000000000C6
:103EFC0000000000000000000000000000000000B6
:103F0C0000000000000000000000000000000000A5
:103F1C000000000000000000000000000000000095
:103F2C000000000000000000000000000000000085
:103F3C000000000000000000000000000000000075
:103F4C00000000000000000101030707070E0E0E21
:103F5C000E0E0E0E07070703010100000000000003
:103F6C000000000000000000000000000000000045
:103F7C000000000000000000000000000000000035
:103F8C000000000000000000000000000000000025
:103F9C000000000000000000000000000000000015
:103FAC000000000000000000000000000000000005
:103FBC0000000000000000000000000000000000F5
:103FCC0000000000000000000000000000000000E5
:103FDC0000000000000000000000000000000000D5
:103FEC0000000000000000000000000000000000C5
:103FFC0000000000000000000000000000000000B5
:10400C0000000000000000000000000000000000A4
:10401C00000000000000000001020304060708096C
:10402C00000000000102030402030405060708094E
:0C403C000A0B0C0D0E0F1010010200000A
:04404800310100083A
:04404C000D0100085A
:0C40500000127A001000000001000000C7
:040000050800086582
:00000001FF
